:020000040800F2
:10000000005000207D340008291100082B11000841
:100010002D1100082F110008311100080000000008
:100020000000000000000000000000006121000846
:1000300033110008000000000122000835110008FB
:10004000C5340008C5340008C5340008C5340008AC
:10005000C5340008C5340008C5340008C53400089C
:10006000C5340008C5340008C5340008C53400088C
:10007000C5340008C5340008C5340008C53400087C
:10008000C5340008C5340008C5340008C53400086C
:10009000C5340008C5340008C5340008C53400085C
:1000A000C5340008C5340008C5340008C53400084C
:1000B000C5340008C5340008C5340008C53400083C
:1000C000C5340008C5340008C5340008C53400082C
:1000D000C5340008C5340008C5340008C53400081C
:1000E000C5340008C5340008C5340008000000000D
:1000F0000000000000000000000000000000000000
:0C01000000000000000000005FF808F1A3
:1001100010B5054C237833B9044B13B10448AFF341
:1001200000800123237010BDC009002000000000E2
:10013000EC97000808B5034B1BB103490348AFF324
:10014000008008BD00000000C4090020EC970008F2
:10015000844641EA000313F0030349D1403A23D314
:100160000B6803604B6843608B688360CB68C36037
:100170000B6903614B6943618B698361CB69C3611F
:100180000B6A03624B6A43628B6A8362CB6AC36207
:100190000B6B03634B6B43638B6B8363CB6BC363EF
:1001A00040304031403ADBD230320BD30B68036031
:1001B0004B6843608B688360CB68C360103010313C
:1001C000103AF3D20C3205D351F8043B40F8043B0B
:1001D000043AF9D2043208D0D2071CBF11F8013B0F
:1001E00000F8013B01D30B8803806046704700BFD5
:1001F000082A13D38B07B1D010F00303AED0C3F19C
:100200000403D21ADB071CBF11F8013B00F8013BC5
:10021000A4D331F8023B20F8023B9FE7043AD9D33C
:10022000013A11F8013B00F8013BF9D20B78037059
:100230004B7843708B7883706046704781F0004143
:1002400002E000BF83F0004330B54FEA41044FEABB
:10025000430594EA050F08BF90EA020F1FBF54EA56
:10026000000C55EA020C7FEA645C7FEA655C00F0F2
:10027000E2804FEA5454D4EB5555B8BF6D420CDDC3
:100280002C4480EA020281EA030382EA000083EA46
:10029000010180EA020281EA0303362D88BF30BDE6
:1002A00011F0004F4FEA01314FF4801C4CEA11313C
:1002B00002D0404261EB410113F0004F4FEA03339B
:1002C0004CEA133302D0524263EB430394EA050F26
:1002D00000F0A780A4F10104D5F1200E0DDB02FA95
:1002E0000EFC22FA05F2801841F1000103FA0EF229
:1002F000801843FA05F359410EE0A5F120050EF1EF
:10030000200E012A03FA0EFC28BF4CF0020C43FA1F
:1003100005F3C01851EBE37101F0004507D54FF02C
:10032000000EDCF1000C7EEB00006EEB0101B1F57C
:10033000801F1BD3B1F5001F0CD349085FEA3000C2
:100340004FEA3C0C04F101044FEA445212F5800FCD
:1003500080F09A80BCF1004F08BF5FEA500C50F16A
:10036000000041EB045141EA050130BD5FEA4C0C4D
:10037000404141EB0101013C28BFB1F5801FE9D2AA
:1003800091F0000F04BF01460020B1FA81F308BFCD
:100390002033A3F10B03B3F120020CDA0C3208DD99
:1003A00002F1140CC2F10C0201FA0CF021FA02F174
:1003B0000CE002F11402D8BFC2F1200C01FA02F1E4
:1003C00020FA0CFCDCBF41EA0C019040E41AA2BF09
:1003D00001EB0451294330BD6FEA04041F3C1CDAD1
:1003E0000C340EDC04F11404C4F1200220FA04F0F1
:1003F00001FA02F340EA030021FA04F345EA03019B
:1004000030BDC4F10C04C4F1200220FA02F001FA5C
:1004100004F340EA0300294630BD21FA04F02946DE
:1004200030BD94F0000F83F4801306BF81F4801177
:100430000134013D4EE77FEA645C18BF7FEA655CEA
:1004400029D094EA050F08BF90EA020F05D054EABC
:10045000000C04BF1946104630BD91EA030F1EBFC1
:100460000021002030BD5FEA545C05D140004941C5
:1004700028BF41F0004130BD14F580043CBF01F5B8
:10048000801130BD01F0004545F0FE4141F470019E
:100490004FF0000030BD7FEA645C1ABF1946104679
:1004A0007FEA655C1CBF0B46024650EA013406BF7A
:1004B00052EA033591EA030F41F4002130BD00BF39
:1004C00090F0000F04BF0021704730B54FF48064F6
:1004D00004F132044FF000054FF0000150E700BF77
:1004E00090F0000F04BF0021704730B54FF48064D6
:1004F00004F1320410F0004548BF40424FF00001C3
:100500003EE700BF42004FEAE2014FEA31014FEA05
:1005100002701FBF12F07F4393F07F4F81F0605154
:10052000704732F07F4208BF704793F07F4F04BF9F
:1005300041F40021704730B54FF4607401F000457C
:1005400021F000411CE700BF50EA010208BF7047DC
:1005500030B54FF000050AE050EA010208BF7047CD
:1005600030B511F0004502D5404261EB41014FF436
:10057000806404F132045FEA915C3FF4D8AE4FF03E
:1005800003025FEADC0C18BF03325FEADC0C18BF21
:10059000033202EBDC02C2F1200300FA03FC20FA72
:1005A00002F001FA03FE40EA0E0021FA02F11444BF
:1005B000BDE600BF70B54FF0FF0C4CF4E06C1CEAD8
:1005C00011541DBF1CEA135594EA0C0F95EA0C0F49
:1005D00000F0DEF82C4481EA030621EA4C5123EABC
:1005E0004C5350EA013518BF52EA033541F48011EB
:1005F00043F4801338D0A0FB02CE4FF00005E1FB9E
:1006000002E506F00042E0FB03E54FF00006E1FBE7
:1006100003569CF0000F18BF4EF0010EA4F1FF042A
:10062000B6F5007F64F5407404D25FEA4E0E6D416A
:1006300046EB060642EAC62141EA55514FEAC5207B
:1006400040EA5E504FEACE2EB4F1FD0C88BFBCF5F7
:10065000E06F1ED8BEF1004F08BF5FEA500E50F1A8
:10066000000041EB045170BD06F0004646EA01016E
:1006700040EA020081EA0301B4EB5C04C2BFD4EBA0
:100680000C0541EA045170BD41F480114FF0000E99
:10069000013C00F3AB8014F1360FDEBF002001F007
:1006A000004170BDC4F10004203C35DA0C341BDC81
:1006B00004F11404C4F1200500FA05F320FA04F053
:1006C00001FA05F240EA020001F0004221F0004187
:1006D00010EBD37021FA04F642EB06015EEA430EFA
:1006E00008BF20EAD37070BDC4F10C04C4F120052A
:1006F00000FA04F320FA05F001FA04F240EA0200DD
:1007000001F0004110EBD37041F100015EEA430EAD
:1007100008BF20EAD37070BDC4F1200500FA05F2CD
:100720004EEA020E20FA04F301FA05F243EA02034C
:1007300021FA04F001F0004121FA04F220EA02005B
:1007400000EBD3705EEA430E08BF20EAD37070BDA1
:1007500094F0000F0FD101F00046400041EB010181
:1007600011F4801F08BF013CF7D041EA060195F063
:10077000000F18BF704703F00046520043EB03031D
:1007800013F4801F08BF013DF7D043EA060370470A
:1007900094EA0C0F0CEA135518BF95EA0C0F0CD015
:1007A00050EA410618BF52EA4306D1D181EA03015B
:1007B00001F000414FF0000070BD50EA410606BF55
:1007C0001046194652EA430619D094EA0C0F02D19A
:1007D00050EA013613D195EA0C0F05D152EA0336DF
:1007E0001CBF104619460AD181EA030101F00041FD
:1007F00041F0FE4141F470014FF0000070BD41F046
:10080000FE4141F4780170BD70B54FF0FF0C4CF41F
:10081000E06C1CEA11541DBF1CEA135594EA0C0F3E
:1008200095EA0C0F00F0A7F8A4EB050481EA030E8B
:1008300052EA03354FEA013100F088804FEA033372
:100840004FF0805545EA131343EA12634FEA022240
:1008500045EA111545EA10654FEA00260EF0004101
:100860009D4208BF964244F1FD0404F5407402D253
:100870005B084FEA3202B61A65EB03055B084FEAE4
:1008800032024FF480104FF4002CB6EB020E75EBE1
:10089000030E22BFB61A754640EA0C005B084FEA09
:1008A0003202B6EB020E75EB030E22BFB61A754686
:1008B00040EA5C005B084FEA3202B6EB020E75EBD1
:1008C000030E22BFB61A754640EA9C005B084FEA49
:1008D0003202B6EB020E75EB030E22BFB61A754656
:1008E00040EADC0055EA060E18D04FEA051545EA45
:1008F00016754FEA06164FEAC30343EA52734FEAEE
:10090000C2025FEA1C1CC0D111F4801F0BD141EA66
:1009100000014FF000004FF0004CB6E711F4801FCB
:1009200004BF01430020B4F1FD0C88BFBCF5E06FAB
:100930003FF6AFAEB5EB030C04BFB6EB020C5FEABB
:10094000500C50F1000041EB045170BD0EF0004E10
:100950004EEA113114EB5C04C2BFD4EB0C0541EA42
:10096000045170BD41F480114FF0000E013C90E63F
:1009700045EA060E8DE60CEA135594EA0C0F08BF03
:1009800095EA0C0F3FF43BAF94EA0C0F0AD150EA02
:1009900001347FF434AF95EA0C0F7FF425AF104695
:1009A00019462CE795EA0C0F06D152EA03353FF4BD
:1009B000FDAE1046194622E750EA410618BF52EA3A
:1009C00043067FF4C5AE50EA41047FF40DAF52EA0E
:1009D00043057FF4EBAE12E74FF0FF3C06E000BFAB
:1009E0004FF0010C02E000BF4FF0010C4DF804CDB8
:1009F0004FEA410C7FEA6C5C4FEA430C18BF7FEA78
:100A00006C5C1BD001B050EA410C0CBF52EA430CA5
:100A100091EA030F02BF90EA020F0020704710F125
:100A2000000F91EA030F58BF994208BF90422CBFB4
:100A3000D8176FEAE37040F0010070474FEA410CAD
:100A40007FEA6C5C02D150EA013C07D14FEA430CCB
:100A50007FEA6C5CD6D152EA033CD3D05DF8040B3C
:100A6000704700BF8446104662468C46194663466E
:100A700000E000BF01B5FFF7B7FF002848BF10F145
:100A8000000F01BD4DF808EDFFF7F4FF0CBF01208A
:100A900000205DF808FB00BF4DF808EDFFF7EAFF06
:100AA00034BF012000205DF808FB00BF4DF808EDC1
:100AB000FFF7E0FF94BF012000205DF808FB00BFB6
:100AC0004DF808EDFFF7CEFF94BF012000205DF840
:100AD00008FB00BF4DF808EDFFF7C4FF34BF01204D
:100AE00000205DF808FB00BF4FEA410C7FEA6C5C18
:100AF00002D150EA013C0AD14FEA430C7FEA6C5C18
:100B000002D152EA033C02D14FF0000070474FF08F
:100B1000010070474FEA410212F5001215D211D5BB
:100B20006FF47873B3EB625212D94FEAC12343F0EA
:100B3000004343EA505311F0004F23FA02F018BF6C
:100B4000404270474FF00000704750EA013005D135
:100B500011F0004008BF6FF0004070474FF00000F8
:100B6000704700BF53B94AB9002908BF00281CBF0D
:100B70004FF0FF314FF0FF3000F076B9ADF1080CC7
:100B80006DE904CE00F006F8DDF804E0DDE90223AB
:100B900004B070472DE9F047089E0D46044688468C
:100BA000002B4DD18A42944668D9B2FA82F252B1F2
:100BB00001FA02F3C2F1200120FA01F10CFA02FC61
:100BC00041EA030894404FEA1C41B8FBF1F71FFAD1
:100BD0008CFE01FB178807FB0EF0230C43EA084349
:100BE00098420AD91CEB030307F1FF3580F01E8100
:100BF000984240F21B81023F63441B1AB3FBF1F0A1
:100C000001FB103300FB0EFEA4B244EA0344A645E8
:100C10000AD91CEB040400F1FF3380F00981A645DA
:100C200040F20681644402380021A4EB0E0440EA3D
:100C300007401EB10023D440C6E90043BDE8F08759
:100C40008B4208D9002E00F0EE800021C6E9000595
:100C50000846BDE8F087B3FA83F100294AD1AB42D8
:100C600002D3824200F2FC80841A65EB0303012068
:100C70009846002EE2D0C6E90048DFE702B9FFDE61
:100C8000B2FA82F2002A40F09180A1EB0C0001211F
:100C90004FEA1C471FFA8CFEB0FBF7F307FB13006B
:100CA000250C45EA00450EFB03F0A84208D91CEBD1
:100CB000050503F1FF3802D2A84200F2CE80434678
:100CC0002D1AB5FBF7F007FB10550EFB00FEA4B282
:100CD00044EA0544A64508D91CEB040400F1FF359D
:100CE00002D2A64500F2B6802846A4EB0E0440EAE4
:100CF00003409EE7C1F120078B4022FA07FC4CEA33
:100D0000030C25FA07FA4FEA1C49BAFBF9F820FA56
:100D100007F309FB18AA8D401FFA8CFE1D4300FA49
:100D200001F308FB0EF02C0C44EA0A44A04202FA3C
:100D300001F20BD91CEB040408F1FF3A80F0888023
:100D4000A04240F28580A8F102086444241AB4FB52
:100D5000F9F009FB104400FB0EFEADB245EA044475
:100D6000A64508D91CEB040400F1FF356CD2A6455A
:100D70006AD90238644440EA0840A0FB0295A4EB1B
:100D80000E04AC42C846AE4656D353D0002E69D0AE
:100D9000B3EB080264EB0E0422FA01F304FA07F73E
:100DA0001F43CC40C6E90074002147E70CFA02FC5F
:100DB000C2F1200125FA01F34FEA1C4720FA01F1A4
:100DC00095400D43B3FBF7F107FB11331FFA8CFE7F
:100DD000280C40EA034001FB0EF3834204FA02F4BC
:100DE00008D91CEB000001F1FF382FD283422DD926
:100DF00002396044C01AB0FBF7F307FB1300ADB231
:100E000045EA004503FB0EF0A84208D91CEB050596
:100E100003F1FF3816D2A84214D9023B6544281AC0
:100E200043EA014138E73146304607E72F46E4E61A
:100E30001846F9E64B45A9D2B9EB020865EB0C0E52
:100E40000138A3E74346EAE7284694E74146D1E75D
:100E5000D0467BE76444023847E7023B65442FE70E
:100E6000084606E73146E9E6704700BF034B0360DA
:100E7000034B0B6080231360704700BFE80B00201A
:100E8000E809002030B59BB0274800F09DF82748BE
:100E900002F0C0FE264B16AC0FCB84E80F000021F9
:100EA000204601F042F8234B186000283AD022482F
:100EB00002F0B0FE1E4C0DF1040C04F1100EBEE861
:100EC0000F00ACE80F009EE807008CE807001B4D00
:100ED000294601A800F0F4FF194B18600DF1200C11
:100EE00004F12C0EBEE80F00ACE80F009EE80700EE
:100EF0008CE8070005F1080108A800F0E1FF114D9A
:100F000028600DF13C0E04F1480CBCE80F00AEE87F
:100F10000F009CE807008EE8070000210FA800F0F2
:100F2000CFFF28601BB030BD440C00209098000813
:100F300008980008DC090020A0980008B098000874
:100F4000E0090020E409002000B585B012E0029B12
:100F50001A7832B1012A16D159680C4802F0F8FD0E
:100F600011E059680A4802F0F3FD0CE00133094A28
:100F70009342FBDD6422084B196801A801F01DF8BB
:100F8000019B102BE3D00023F1E700BFD0980008AD
:100F9000C09800089F860100DC09002038B505468E
:100FA00003E00133064A9342FBDD064C206801F062
:100FB00048F864222946206800F0CCFF0023F1E7BE
:100FC0009F860100DC09002008B5054B1860054B21
:100FD0001868002302221946806802F035FE08BD19
:100FE0003C0C00201000002010B5013801280AD860
:100FF00014464FF0FF3392B20748006800F0E3FE5A
:1010000040B9204610BD02F05FFA092303604FF09B
:10101000FF30F7E70520F5E73C0C002084B00F4BCC
:101020009A6942F010029A619A6902F010020192E4
:10103000019A9A6942F020029A619A6902F02002AC
:101040000292029A9A6942F004029A619B6903F043
:1010500004030393039B04B0704700BF00100240D9
:1010600072B6FEE700B591B02822002106A802F072
:1010700011FD00230193029303930493059302232C
:10108000069301230A9310230B9306A800F0D0FACD
:1010900068B90F23019300210291039104910591F6
:1010A00001A800F005FD20B911B05DF804FBFFF7C1
:1010B000D7FFFFF7D5FF08B500F010F9FFF7D2FF13
:1010C000FFF7ACFF00F08EF8FFF7DCFE00F0F3FE58
:1010D000FEE7000000B583B0114B9A6942F00102AF
:1010E0009A619A6902F001020092009ADA6942F06C
:1010F0008052DA61DB6903F080530193019B002287
:101100000F216FF0010000F01FF9064A536823F029
:10111000E06343F00073536003B05DF804FB00BF6D
:101120000010024000000140FEE7FEE7FEE7FEE798
:10113000FEE7704708B500F0E3F802F035F9012842
:1011400000D108BD01F07EF8FBE70120704708B52B
:1011500002F0BAF9162303604FF0FF3008BD08B55E
:101160004FF0FF31FFF7F3FFFEE770B50C46164670
:10117000002506E0AFF30080214601F8010B0135A0
:101180000C46B542F6DB304670BD000008B503469C
:101190000B4A126842B10A4A106803446A469342F5
:1011A00006D8074A136008BD054A06491160F2E7F0
:1011B00002F08AF90C2303604FF0FF30F3E700BF21
:1011C000400C0020080E00204FF0FF3070474FF415
:1011D00000534B600020704701207047002070478B
:1011E0007047000008B50A480A4B03604FF4E1332A
:1011F000436000238360C36003610C22426183610A
:10120000C36100F0B1FD00B908BDFFF729FFFBE79E
:10121000440C00200038014010B586B00023029332
:101220000393049305930268174B9A4201D006B0CA
:1012300010BD03F558439A6942F480429A619A6955
:1012400002F480420092009A9A6942F004029A6184
:101250009B6903F004030193019B4FF40073029315
:101260000223039303230593084C02A9204600F0B0
:10127000B7F84FF48063029300230393049302A909
:10128000204600F0ADF8D2E70038014000080140E8
:1012900010B504460E4B18784FF47A73B3FBF0F395
:1012A0000C4A1068B0FBF3F000F086F868B90F2C18
:1012B00001D901200AE0002221464FF0FF3000F062
:1012C00043F8054B1C60002000E0012010BD00BF6A
:1012D00004000020000000200800002008B5074A94
:1012E000136843F010031360032000F01BF80F2075
:1012F000FFF7CEFFFFF7EEFE002008BD0020024002
:10130000034A1168034B1B780B441360704700BFFE
:10131000880C002004000020014B1868704700BFB3
:10132000880C0020074AD36823F4E0631B041B0CDD
:10133000000200F4E060034343F0BF6343F4003372
:10134000D360704700ED00E000B5194BDB68C3F3D4
:101350000223C3F1070CBCF1040F28BF4FF0040CAB
:1013600003F1040EBEF1060F18D9033B4FF0FF3E08
:101370000EFA0CFC21EA0C0199400EFA03F322EA62
:101380000303194300280BDB0901C9B200F16040D7
:1013900000F5614080F800135DF804FB0023E5E7E9
:1013A00000F00F000901C9B2024B1954F4E700BF65
:1013B00000ED00E014ED00E00138B0F1807F0BD2C9
:1013C0004FF0E0235861054AF02182F823100020F5
:1013D000986107221A6170470120704700ED00E014
:1013E00070B582B00024A446A6E0804DAA4210D079
:1013F00007D97F4DAA420CD005F58035AA4208D006
:1014000013E0A5F58015AA4203D005F57025AA4280
:1014100007D18A68002A58D0012A51D04361082494
:1014200003E0A5F58015AA42F3D0BEF1FF0F4ED818
:101430000646BEF1FF0F4CD84FEA8C0233680F25E9
:10144000954023EA050304FA02F2134333604B6824
:1014500013F0805F6ED0674B9A6942F001029A6187
:101460009B6903F001030193019B4FEA9C02951CC9
:10147000614B53F825600CF003039D000F23AB4034
:1014800026EA03065D4B984229D003F58063984213
:1014900000F08E8003F58063984200F08B8003F5A6
:1014A0008063984219D004231AE0CC68BDE7CC6869
:1014B0000434BAE7CC680834B7E7CC680C34B4E736
:1014C00003610824B1E70024AFE70424ADE7061D5B
:1014D000AFE7ACF108029200B0E7032300E000237D
:1014E000AB4033430232444D45F822304B6813F48D
:1014F000803F61D0424A136843EA0E0313604B6891
:1015000013F4003F5ED03E4A536843EA0E03536033
:101510004B6813F4801F5BD0394A936843EA0E038B
:1015200093604B6813F4001F58D0354AD36843EAE0
:101530000E03D3600CF1010C0A6832FA0CF353D09D
:10154000012303FA0CF302EA030E33EA0202F1D19B
:101550004A68122A3FF649AF122A3FF666AF01A544
:1015600055F822F013140008AB140008B514000855
:10157000C71400082B1400082B1400082B140008B3
:101580002B1400082B1400082B1400082B1400083F
:101590002B1400082B1400082B1400082B1400082F
:1015A0002B1400082B140008AF140008BB1400080B
:1015B000012395E7022393E7114A136823EA0E03F8
:1015C00013609CE70E4A536823EA0E0353609FE7BB
:1015D0000B4A936823EA0E039360A2E7084AD36894
:1015E00023EA0E03D360A5E702B070BD000022100D
:1015F00000003110001002400000014000080140CE
:101600000004014082B0084B1B68084AA2FB032378
:101610005B0A00FB03F3019300BF019B5A1E01927A
:10162000002BF9D102B0704700000020D34D6210AA
:10163000002800F0F18170B582B00446036813F011
:10164000010F2CD0994B5B6803F00C03042B1DD0C9
:10165000964B5B6803F00C03082B12D06368B3F55C
:10166000803F41D0002B55D103F1804303F5043373
:101670001A6822F480321A601A6822F480221A60F2
:1016800037E08A4B5B6813F4803FE7D0874B1B68D9
:1016900013F4003F03D06368002B00F0BF81236880
:1016A00013F0020F75D0814B5B6813F00C0F5FD005
:1016B0007E4B5B6803F00C03082B54D02369002B8E
:1016C00000F08A807A4B01221A60FFF725FE05465A
:1016D000764B1B6813F0020F75D1FFF71DFE401B00
:1016E0000228F5D903209EE1704A136843F4803341
:1016F0001360636843B3FFF70FFE05466B4B1B682F
:1017000013F4003FCBD1FFF707FE401B6428F5D947
:10171000032088E1B3F5A02F09D0644B1A6822F4A6
:1017200080321A601A6822F480221A60E1E703F11D
:101730008043A3F53C331A6842F480221A601A6889
:1017400042F480321A60D4E7FFF7E6FD0546574BB6
:101750001B6813F4003FA2D0FFF7DEFD401B642896
:10176000F5D903205FE1514B5B6813F4803FA5D1AD
:101770004E4B1B6813F0020F03D02369012B40F07E
:101780004F814A4A136823F0F803616943EAC103B1
:101790001360236813F0080F33D0A369002B5CD0CB
:1017A000434B0122C3F88024FFF7B6FD05463F4BAB
:1017B0005B6A13F0020F21D1FFF7AEFD401B022838
:1017C000F5D903202FE1394A136823F0F803616942
:1017D00043EAC1031360DCE7354B00221A60FFF7D0
:1017E0009BFD0546314B1B6813F0020FD1D0FFF76C
:1017F00093FD401B0228F5D9032014E10120FFF7D7
:1018000001FF236813F0040F00F09680274BDB697B
:1018100013F0805F34D1254BDA6942F08052DA61EF
:10182000DB6903F080530193019B0125214B1B6869
:1018300013F4807F26D0E368012B3DD0002B53D1D9
:1018400003F1804303F504331A6A22F001021A629D
:101850001A6A22F004021A6233E0154B0022C3F820
:101860008024FFF759FD0546104B5B6A13F0020F09
:10187000C7D0FFF751FD401B0228F5D90320D2E065
:101880000025D3E70B4A136843F480731360FFF716
:1018900043FD0646074B1B6813F4807FCBD1FFF74F
:1018A0003BFD801B6428F5D90320BCE000100240FA
:1018B00000004242007000405F4A136A43F0010397
:1018C0001362E36833B3FFF727FD06465A4B1B6AE2
:1018D00013F0020F2FD1FFF71FFD801B41F2883359
:1018E0009842F3D903209EE0052B09D0524B1A6A87
:1018F00022F001021A621A6A22F004021A62E0E778
:101900004D4B1A6A42F004021A621A6A42F001024E
:101910001A62D6E7FFF700FD0646474B1B6A13F035
:10192000020F08D0FFF7F8FC801B41F28833984281
:10193000F3D9032077E0E5B9E369002B72D03E4A82
:10194000526802F00C02082A56D0022B17D03B4BEB
:1019500000221A66FFF7E0FC0446374B1B6813F0C1
:10196000007F47D0FFF7D8FC001B0228F5D90320E1
:1019700059E0314AD36923F08053D361DCE72F4B20
:1019800000221A66FFF7C8FC05462B4B1B6813F0B4
:10199000007F06D0FFF7C0FC401B0228F5D90320CA
:1019A00041E0236AB3F5803F1AD023494B6823F402
:1019B0007413226A606A024313434B601F4B012277
:1019C0001A66FFF7A9FC04461B4B1B6813F0007F47
:1019D0000ED1FFF7A1FC001B0228F5D9032022E05D
:1019E000154A536823F40033A1680B435360DCE7C6
:1019F000002018E0002016E0012B16D00E4B5B688B
:101A000003F48031226A914211D103F47013626AA7
:101A100093420ED1002006E001207047012002E031
:101A2000012000E0002002B070BD0120FBE7012092
:101A3000F9E70120F7E700BF001002400000424232
:101A400086B0174B0FCB0DF1180C0CE90F0040F2CC
:101A50000123ADF80430134B5B6803F00C02082A35
:101A600002D0114806B07047C3F3834218326A446B
:101A700012F8100C13F4803F0DD00A4B5B68C3F3CF
:101A8000404318336B4413F8143C074A02FB00F040
:101A9000B0FBF3F0E6E7054B03FB00F0E2E700BF25
:101AA000F89800080010024000127A0000093D007A
:101AB000002800F0A08070B50D460446524B1B680C
:101AC00003F007038B420BD24F4A136823F007033E
:101AD0000B431360136803F007038B4240F08D80C3
:101AE000236813F0020F17D013F0040F04D0474AF5
:101AF000536843F4E0635360236813F0080F04D085
:101B0000424A536843F460535360404A536823F099
:101B1000F003A1680B435360236813F0010F31D029
:101B20006368012B20D0022B25D0384A126812F0AE
:101B3000020F64D035494A6822F0030213434B6018
:101B4000FFF7EAFB0646314B5B6803F00C03626863
:101B5000B3EB820F16D0FFF7DFFB801B41F2883317
:101B60009842F0D9032045E0284A126812F4003F59
:101B7000E0D101203EE0254A126812F0007FD9D161
:101B8000012037E0204B1B6803F00703AB420AD962
:101B90001D4A136823F007032B431360136803F0F7
:101BA0000703AB422DD1236813F0040F06D0174A68
:101BB000536823F4E063E1680B435360236813F038
:101BC000080F07D0114A536823F46053216943EA90
:101BD000C1035360FFF734FF0C4B5B68C3F303137F
:101BE0000B4AD35CD8400B4B18600B4B1868FFF7BF
:101BF0004FFB002070BD012070470120FAE7012053
:101C0000F8E70120F6E700BF002002400010024084
:101C1000E09800080000002008000020014B186830
:101C2000704700BF0000002008B5FFF7F7FF044B26
:101C30005B68C3F30223034AD35CD84008BD00BFEE
:101C400000100240F098000808B5FFF7E7FF044BCA
:101C50005B68C3F3C223034AD35CD84008BD00BF0E
:101C600000100240F098000810B50446026813699D
:101C700023F44053C1680B43136183680269134323
:101C800042691A430168CB6823F4B05323F00C0374
:101C90001343CB600268536923F4407381690B439B
:101CA00053610268134B9A4220D0FFF7BDFF0246F2
:101CB00002EB820202EB820263689B00B2FBF3F24A
:101CC0000D48A0FB02314909642303FB11231B01CA
:101CD0003233A0FB03235B0903F0F00202EB011295
:101CE00003F00F03216813448B6010BDFFF7ACFFB6
:101CF0000246DDE7003801401F85EB512DE9F8432E
:101D000005460F4616469946DDF820802C68246863
:101D100037EA04030CBF4FF0010C4FF0000CB44540
:101D20001FD1B8F1FF3FF1D0B8F1000F05D0FFF798
:101D3000F3FAA0EB09004045E8D92A68D36823F4F8
:101D4000D073D3602A68536923F0010353612023C1
:101D500085F83D3085F83E30002385F83C3003207F
:101D600000E00020BDE8F88358B310B5044690F8B1
:101D70003D300BB3242384F83D302268D36823F42C
:101D80000053D3602046FFF76FFF2268136923F4E6
:101D9000904313612268536923F02A035361226838
:101DA000D36843F40053D36000202064202384F8D8
:101DB0003D3084F83E3010BD80F83C30FFF72CFAFF
:101DC000D8E7012070472DE9F04182B01E4690F817
:101DD0003D30DBB2202B54D104460D4690460029FD
:101DE00053D0002A53D090F83C30012B51D001231E
:101DF00080F83C3000230364212380F83D30FFF756
:101E00008BFA0746A4F82480A4F82680A368B3F5CB
:101E1000805F05D04FF00008002384F83C3012E0CA
:101E2000236913B14FF00008F6E7A8460025F3E751
:101E300038F8023B2268C3F308035360E28C92B285
:101E4000013A92B2E284E38C9BB273B100963B46B6
:101E5000002280212046FFF751FFE0B9002DE7D096
:101E600015F8012B23685A60E8E700963B460022EC
:101E700040212046FFF742FF78B9202384F83D3007
:101E800000E0022002B0BDE8F0810120FAE7012065
:101E9000F8E70220F6E70320F4E70320F2E78428BE
:101EA00001D00330704700207047EFF30580003801
:101EB00018BF0120704708B501F02EF8002008BDBA
:101EC0002DE9F04387B004460F464569BDB18669E8
:101ED000AEB1D0F80480D0F80090B0F90800FFF758
:101EE000DEFF0296019500903B4622694946404636
:101EF00000F0A4FF0590059807B0BDE8F083656881
:101F00002668D4F81080B4F90800FFF7C8FF05ABC5
:101F1000019300903B461FFA88F23146284600F0B4
:101F2000C7FF0128E7D00020E6E700B583B082684C
:101F300042B1C36833B1002100914168006800F0EC
:101F400041FB04E000224168006800F084FB03B01C
:101F50005DF804FB30B585B004460191002303937E
:101F6000154602B90125FFF7A0FFA8B1002303AA77
:101F700001A9204600F05AFC012818D1039BC3B1E7
:101F80004FF0E0234FF08052C3F8042DBFF34F8F82
:101F9000BFF36F8F002008E000232A4601A92046E6
:101FA00000F080FB012806D1002005B030BDFF20E5
:101FB000FBE70020F9E7FF20F7E770B584B004469F
:101FC000029100230193E1B10D46164600230393CD
:101FD000FFF76BFF00B303AA01A9284600F03BFD01
:101FE000012816D000230093039BFBB14FF0E023A0
:101FF0004FF08052C3F8042DBFF34F8FBFF36F8FA4
:1020000014E0802300936B4693E8070084E8070000
:1020100011E010230093E7E7324601A9284600F0BB
:102020006BFC01280AD006B1402600966B4693E867
:10203000070084E80700204604B070BD1023009319
:10204000F4E708B500F05BFD08BD00F1080343604C
:102050004FF0FF328260C36003610023036070476A
:1020600000230361704743684B609A688A6051603F
:1020700099600861036801330360704730B40D68EC
:10208000B5F1FF3F11D000F108031C465B681A68E8
:10209000AA42FAD963684B6099608C6061600861FC
:1020A00003680133036030BC70470469F2E70369D9
:1020B000416882688A60416851605A68824206D0ED
:1020C000002202611A68013A1A6018687047826833
:1020D0005A60F5E782B0002301930D4B1B68B3F102
:1020E000FF3F08D04FF0500383F31188BFF36F8F89
:1020F000BFF34F8FFEE74FF0500383F31188BFF318
:102100006F8FBFF34F8F019B002BFCD002B0704745
:102110000C00002006480068006880F3088862B65A
:1021200061B6BFF34F8FBFF36F8F00DF00BF0000BA
:1021300008ED00E04FF0807340F8043C21F001010D
:1021400040F8081C034B40F80C3C40F8202C403869
:10215000704700BFD520000800000000000000000C
:10216000074B19680868B0E8F00F80F30988BFF3DF
:102170006F8F4FF0000080F311884EF00D0E704706
:10218000940C00204FF0500383F31188BFF36F8F3E
:10219000BFF34F8F0B4A136801331360012B00D03C
:1021A00070474FF0E023D3F8043D13F0FF0FF7D052
:1021B0004FF0500383F31188BFF36F8FBFF34F8F3E
:1021C000FEE700BF0C000020094B1B6843B94FF02D
:1021D000500383F31188BFF36F8FBFF34F8FFEE778
:1021E000013B034A13600BB983F31188704700BFAA
:1021F0000C000020000000000000000000000000B3
:10220000EFF30980BFF36F8F0D4B1A6820E9F00FD1
:1022100010602DE908404FF0500080F3118800F065
:10222000C5FF4FF0000080F31188BDE80840196831
:102230000868B0E8F00F80F30988BFF36F8F70472C
:10224000940C002008B54FF0500383F31188BFF3BE
:102250006F8FBFF34F8F00F0A1FE28B14FF0E02346
:102260004FF08052C3F8042D002383F3118808BD7A
:102270004FF0E022002313619361054B1B68054971
:10228000A1FB03139B09013B5361072313617047B3
:1022900000000020D34D621010B582B02A4B1A788E
:1022A000D2B20192FF221A701B78DBB28DF8033094
:1022B0009DF8033003F05003244A1370244B072287
:1022C0001A6009E0224A1368013B13609DF803304D
:1022D0005B00DBB28DF803309DF8033013F0800F04
:1022E000F0D11B4B1B68032B08D04FF0500383F336
:1022F0001188BFF36F8FBFF34F8FFEE71B02144AA5
:10230000136003F4E0631360019BDBB20E4A1370A9
:102310004FF0E023D3F8202D42F47002C3F8202DB3
:10232000D3F8202D42F07042C3F8202DFFF7A0FF14
:102330000024084B1C60FFF7EDFE00F037FFFFF7AD
:10234000C9FE204602B010BD00E400E08C0C002065
:10235000900C00200C000020EFF305830F2B0FD909
:10236000114A9B5CDBB2114A12789A4208D94FF0AD
:10237000500383F31188BFF36F8FBFF34F8FFEE7D6
:102380004FF0E023D3F80C3D03F4E063084A1268F1
:10239000934208D94FF0500383F31188BFF36F8F36
:1023A000BFF34F8FFEE77047F0E300E08C0C002096
:1023B000900C002010B5044600F0E8FD204601F026
:1023C000ADF8044600F076FE204610BD48B110B5C9
:1023D000044600F0DBFD204601F0A8F800F06AFE9C
:1023E00010BD704710B50446FFF7CCFEA26BE36B3F
:1023F0009A4204D00024FFF7E7FE204610BD0124D6
:10240000F9E710B50446FFF7BDFEA36B23B901241D
:10241000FFF7DAFE204610BD0024F9E770B5044648
:102420001546866B026C5AB903681BB10020013651
:10243000A66370BD406800F0C7FF00236360F6E745
:102440006DB98068FDF784FE226CA3681344A36015
:102450006268934219D32368A3602846E7E7C068FF
:10246000FDF776FE226C5142E3689B1AE360226816
:10247000934202D263680B44E360022D01D0002036
:10248000D5E726B1013E0020D1E72846CFE700205E
:10249000CDE708B50346026C62B10846D96811441D
:1024A000D960D3F804C0614501D31968D960D968EF
:1024B000FDF74EFE08BD38B50546FFF763FE95F8FB
:1024C000454064B201E0013C64B2002C0ADD6B6A55
:1024D00043B105F1240000F0CDFE0028F3D000F058
:1024E0005DFFF0E7FF2385F84530FFF76DFEFFF74E
:1024F00049FE95F8444064B201E0013C64B2002C0E
:102500000ADD2B6943B105F1100000F0B3FE00288D
:10251000F3D000F043FFF0E7FF2385F84430FFF7E6
:1025200053FE38BD38B5E0B10D460446FFF72AFE2C
:102530002368E26B216C01FB023060600020A06325
:10254000A360013A02FB0133E360FF2384F84430C7
:1025500084F84530FDB9236963B9FFF735FE0120E2
:1025600038BD4FF0500383F31188BFF36F8FBFF373
:102570004F8FFEE704F1100000F07CFE0028ECD045
:102580004FF0E0234FF08052C3F8042DBFF34F8F7C
:10259000BFF36F8FE1E704F11000FFF756FD04F180
:1025A0002400FFF752FDD8E710B5034602980C4609
:1025B00031B90060C36304640121FFF7B3FF10BDAC
:1025C0000260F7E740B94FF0500383F31188BFF37F
:1025D0006F8FBFF34F8FFEE710B584B01C46844663
:1025E00053B192B189B94FF0500383F31188BFF30F
:1025F0006F8FBFF34F8FFEE74FF0500383F31188C7
:10260000BFF36F8FBFF34F8FFEE76AB14823039389
:10261000039B482B13D04FF0500383F31188BFF373
:102620006F8FBFF34F8FFEE70029EFD04FF05003BD
:1026300083F31188BFF36F8FBFF34F8FFEE7012342
:1026400084F8463000949DF818306046FFF7ACFFE0
:10265000204604B010BD40B94FF0500383F31188F9
:10266000BFF36F8FBFF34F8FFEE7F0B583B00C461B
:1026700015460746A1B101FB00F04830FFF79AFE6E
:10268000064650B1002380F8463000902B4600F1FA
:10269000480221463846FFF787FF304603B0F0BDB9
:1026A0000846EAE7F0B585B0019288B10F461D46AD
:1026B0000446B1B1022D20D1E36B012B1DD04FF0A8
:1026C000500383F31188BFF36F8FBFF34F8FFEE783
:1026D0004FF0500383F31188BFF36F8FBFF34F8F19
:1026E000FEE7036C002BE5D04FF0500383F3118815
:1026F000BFF36F8FBFF34F8FFEE700F055FE064626
:1027000058B9019B002B48D04FF0500383F3118838
:10271000BFF36F8FBFF34F8FFEE700263DE02A46E1
:1027200039462046FFF77AFE636A7BB948B14FF01D
:10273000E0234FF08052C3F8042DBFF34F8FBFF357
:102740006F8FFFF741FD012005B0F0BD04F12400BB
:1027500000F090FD0028F4D04FF0E0234FF08052BD
:10276000C3F8042DBFF34F8FBFF36F8FE9E7FFF777
:102770002BFD0020E8E702A800F0C2FD012619E0C9
:10278000002384F8443021E0002384F8453023E01E
:102790002046FFF790FE00F08DFCFFF7F3FCA26BE4
:1027A000E36B9A42BBD3022DB9D0019B002BDED044
:1027B000002EE0D0FFF708FD00F0E8FBFFF7E2FC99
:1027C00094F8442052B2B2F1FF3FD9D094F845209A
:1027D00052B2B2F1FF3FD7D0FFF7F6FC01A902A831
:1027E00000F09AFDD8B92046FFF7FCFD0028CFD0B5
:1027F000019904F1100000F025FD2046FFF75BFE73
:1028000000F058FC0028C8D14FF0E0234FF0805270
:10281000C3F8042DBFF34F8FBFF36F8FBDE7204682
:10282000FFF749FE00F046FC00208DE72DE9F84354
:1028300090B10F4616461C460546B1B1022C20D178
:10284000EB6B012B1DD04FF0500383F31188BFF3C6
:102850006F8FBFF34F8FFEE74FF0500383F3118864
:10286000BFF36F8FBFF34F8FFEE7036C002BE5D0F4
:102870004FF0500383F31188BFF36F8FBFF34F8F77
:10288000FEE7FFF769FDEFF311894FF0500383F383
:102890001188BFF36F8FBFF34F8FAA6BEB6B9A4218
:1028A00006D3022C04D0002089F31188BDE8F883F8
:1028B00095F845804FFA88F8224639462846FFF7B2
:1028C000ADFDB8F1FF3F06D008F101035BB285F81A
:1028D00045300120E8E76B6A0BB90120E4E705F118
:1028E000240000F0C7FC18B126B101203060DBE7FE
:1028F0000120D9E70120D7E7F0B585B0019290B16A
:102900000F460446C1B100F04FFD064600BB019BD7
:10291000002B5ED04FF0500383F31188BFF36F8F0D
:10292000BFF34F8FFEE74FF0500383F31188BFF3DF
:102930006F8FBFF34F8FFEE7036C002BE3D04FF098
:10294000500383F31188BFF36F8FBFF34F8FFEE700
:1029500000263EE039462046FFF79BFD013DA5637A
:10296000236923B9FFF730FC012005B0F0BD04F165
:10297000100000F07FFC0028F4D04FF0E0234FF06F
:102980008052C3F8042DBFF34F8FBFF36F8FE9E779
:10299000FFF71AFC0020E8E702A800F0B1FC0126CE
:1029A00021E0002384F8443029E0002384F84530F6
:1029B0002BE02046FFF77FFD00F07CFB09E020467E
:1029C000FFF779FD00F076FB2046FFF71AFD00289F
:1029D0003FD1FFF7D7FBA56B002DBBD1019B002B8F
:1029E000D6D0002ED8D0FFF7EFFB00F0CFFAFFF7DC
:1029F000C9FB94F844305BB2B3F1FF3FD1D094F8F7
:102A000045305BB2B3F1FF3FCFD0FFF7DDFB01A94B
:102A100002A800F081FC0028D1D12046FFF7F1FC8C
:102A20000028C6D0019904F1240000F00BFC2046D8
:102A3000FFF741FD00F03EFB0028CAD14FF0E02334
:102A40004FF08052C3F8042DBFF34F8FBFF36F8F49
:102A5000BFE7002089E72DE9F843B0B10D461646DF
:102A60000446D9B1FFF778FCEFF311884FF050031B
:102A700083F31188BFF36F8FBFF34F8FA76BCFB96D
:102A8000002088F31188BDE8F8834FF0500383F3EA
:102A90001188BFF36F8FBFF34F8FFEE7036C002BDE
:102AA000E0D04FF0500383F31188BFF36F8FBFF373
:102AB0004F8FFEE794F844904FFA89F92946204653
:102AC000FFF7E7FC013FA763B9F1FF3F06D009F12B
:102AD00001035BB284F844300120D2E723690BB9CB
:102AE0000120CEE704F1100000F0C4FB18B126B1BC
:102AF00001203060C5E70120C3E70120C1E738B5F8
:102B000048B10546FFF73EFBEC6BAB6BE41AFFF7F1
:102B10005BFB204638BD4FF0500383F31188BFF3B1
:102B20006F8FBFF34F8FFEE7084B1B681B6823B9FD
:102B3000074B4FF0FF321A607047044B1B68DB688D
:102B4000DB685A68024B1A60704700BF980C00207F
:102B5000700D00202DE9F04707469846089DDDF8E6
:102B600024900A9C266B02F18042013A06EB820611
:102B700026F007064FF0000CBCF10F0F0BD811F830
:102B80000C2004EB0C0383F8342011F80C3013B143
:102B90000CF1010CF0E7002384F84330062D00D936
:102BA0000625E56265644FF0000AC4F848A0201DC0
:102BB000FFF756FA04F11800FFF752FA2461C5F145
:102BC0000705A5616462C4F84CA084F850A0424691
:102BD00039463046FFF7AEFA2060B9F1000F01D058
:102BE000C9F80040BDE8F08738B5002407E004EBE1
:102BF000840293000E481844FFF727FA0134062C8C
:102C0000F5D90C4D2846FFF720FA0B4C2046FFF76C
:102C10001CFA0A48FFF719FA0948FFF716FA09489B
:102C2000FFF713FA084B1D60084B1C6038BD00BF4E
:102C3000A00C0020440D0020580D0020780D00202D
:102C4000A40D0020900D0020980C00209C0C00206A
:102C500010B50446FFF796FA214A13680133136052
:102C6000204B1B685BB1204B1B686BB91D4B1B686D
:102C7000DA6AE36A9A4207D81A4B1C6004E0194BDF
:102C80001C601368012B28D0184A136801331360A5
:102C9000E06A01238340164A11680B43136000EB7E
:102CA0008000211D134B03EB8000FFF7DCF9FFF7D9
:102CB0008BFA0D4B1B687BB10A4B1B68DA6AE36A1F
:102CC0009A4209D24FF0E0234FF08052C3F8042D0E
:102CD000BFF34F8FBFF36F8F10BDFFF785FFD3E7B3
:102CE0002C0D0020940C00208C0D00203C0D0020A9
:102CF000400D0020A00C002010B5044690F8513083
:102D000063B1012B11D0022B0ED04FF0500383F38F
:102D10001188BFF36F8FBFF34F8FFEE7006BFFF794
:102D200055FB2046FFF752FB10BDFFF74FFBFBE7BB
:102D30000F4B1B68D3B110B5FFF724FA0D4BDB68BE
:102D4000DC68201DFFF7B3F90B4A1368013B1360E1
:102D5000074A1368013B1360FFF736FA2046FFF776
:102D6000CBFF034B1B68002BE6D110BD704700BFA3
:102D7000300D0020A40D00202C0D002008B5FFF719
:102D8000D7FF074B1B68012BF9D94FF0E0234FF019
:102D90008052C3F8042DBFF34F8FBFF36F8FEEE760
:102DA000A00C002070B504460D461D4B1E681D4B3F
:102DB00018680430FFF77BF950B91A4B1B68DA6AC0
:102DC000012303FA02F218490B6823EA02030B609D
:102DD000B4F1FF3F0DD03444124B1B685C60A64237
:102DE00010D9124B18680F4B19680431FFF746F9D8
:102DF00070BD002DEFD00B4B196804310C48FFF764
:102E000032F9F5E70B4B1868064B19680431FFF7E8
:102E100035F9094B1B68A342EAD9074B1C60E7E769
:102E2000B80D0020940C0020400D00209C0C0020C8
:102E3000900D0020980C0020700D002030B587B058
:102E40000B9C7CB10C9DB5B154250495049D542D6B
:102E50001AD04FF0500383F31188BFF36F8FBFF385
:102E60004F8FFEE74FF0500383F31188BFF36F8F4E
:102E7000BFF34F8FFEE74FF0500383F31188BFF38A
:102E80006F8FBFF34F8FFEE70C9D2C63022485F8F4
:102E9000514000240394029505AC01940A9C0094CF
:102EA000FFF758FE0C98FFF7D3FE059807B030BD2A
:102EB0002DE9F04385B00746884614461E4690002B
:102EC000FFF778FA00B381465420FFF773FA0546FE
:102ED000B0B1C0F83090E5B1002385F851300393CC
:102EE00002950D9B01930C9B00933346224641466D
:102EF0003846FFF72FFE2846FFF7AAFE012005E01F
:102F00004846FFF763FAE6E74FF0FF3005B0BDE84B
:102F1000F0834FF0FF30F9E710B588B00024059436
:102F2000069407AA06A905A8FDF7A0FF059B029332
:102F3000069B019300942346079A0E490E48FFF71B
:102F40007DFF0E4B186090B14FF0500383F3118852
:102F5000BFF36F8FBFF34F8F094B4FF0FF321A60F3
:102F6000084B01221A60084B1C60FFF795F908B066
:102F700010BD00BF0C9900087D2D00086C0D0020CD
:102F8000700D00208C0D0020B80D0020024A13683F
:102F900001331360704700BF380D0020F8B53A4B7D
:102FA0001B68002B64D1394B1D6801351D60C5B904
:102FB000374B1B681B6843B14FF0500383F31188F4
:102FC000BFF36F8FBFF34F8FFEE7314A1168314B6C
:102FD000186810601960304A136801331360FFF7F6
:102FE000A3FD2E4B1B68AB4238D900272C4B1B6826
:102FF000DB6A03EB83039A002A4B9B58012B3CD9D5
:1030000001273AE00127224B1B681B6843B3204B82
:103010001B68DB68DC6863689D4226D3261D30464A
:10302000FFF745F8A36A1BB104F11800FFF73FF85A
:10303000E36A01229A401C49086802430A6003EBD4
:1030400083039A00314617481044FFF70CF8E26AF0
:10305000134B1B68DB6A9A42D4D2D4E70027D2E72D
:103060000E4B4FF0FF321A60C0E70C4A1360BDE709
:103070000E4A13680133136000270D4B1B6803B120
:1030800001273846F8BD00BF380D0020B80D0020DC
:10309000980C00209C0C0020740D0020700D002066
:1030A000940C0020A00C0020400D0020340D0020C6
:1030B000BC0D002038B5354B1B6843B94FF05003A9
:1030C00083F31188BFF36F8FBFF34F8FFEE7FFF7D6
:1030D00059F82E4B1A68013A1A601B68002B4FD121
:1030E0002B4B1B680BB900244BE00024294B1B68B9
:1030F0001BB3284BDB68DC6804F11800FEF7D7FF30
:10310000251D2846FEF7D3FFE06A01238340224AAB
:1031100011680B43136000EB800029461F4B03EB43
:103120008000FEF7A0FFE26A1D4B1B68DB6A9A4233
:10313000DCD31C4B01221A60D8E70CB1FFF7F4FC7A
:10314000194B1C6884B9174B1C68D4B14FF0E023AD
:103150004FF08052C3F8042DBFF34F8FBFF36F8F32
:1031600001240EE0013C07D0FFF718FF0028F9D03A
:103170000C4B01221A60F5E70B4B00221A60E2E7C4
:103180000024FFF721F8204638BD00BF380D00208D
:103190002C0D0020780D0020400D0020A00C0020F8
:1031A000940C0020BC0D0020340D0020204B1B6827
:1031B0001BB1204B01221A6070471E4B00221A607F
:1031C0001D4B1B68B3FA83F3DBB2C3F11F0303EBA0
:1031D00083018A0019498A5842B94FF0500383F39A
:1031E0001188BFF36F8FBFF34F8FFEE7134903EBD7
:1031F000830082000A4450684068506003EB830CEF
:103200004FEA8C0208321144884209D003EB830351
:103210009A000A4B13445B68DA68094B1A607047DE
:10322000406862469100054A0A445060EEE700BFDC
:10323000380D0020BC0D0020400D0020A00C002007
:10324000940C002058B110B50C46094A1168183189
:10325000FEF714FF01212046FFF7A4FD10BD4FF03B
:10326000500383F31188BFF36F8FBFF34F8FFEE7D7
:10327000940C002038B5C368DC6824B304F1180549
:103280002846FEF714FF184B1B682BBB251D28464C
:10329000FEF70DFFE06A01238340144A11680B43D7
:1032A000136000EB80002946114B03EB8000FEF712
:1032B000DAFEE26A0F4B1B68DB6A9A4211D90120E1
:1032C0000D4B186038BD4FF0500383F31188BFF3E6
:1032D0006F8FBFF34F8FFEE729460848FEF7C3FE06
:1032E000E7E70020EEE700BF380D0020400D00208A
:1032F000A00C0020940C0020BC0D0020780D0020B4
:10330000034B1B680360034B1B684360704700BF9F
:10331000740D0020B80D0020D8B170B50C460546DC
:1033200001B3FEF72FFF1B4B19686B68C81A2268A0
:10333000B2F1FF3F27D0184E3668D5F800C0B4452B
:1033400001D08B4224D9824215D800232360012466
:103350001AE04FF0500383F31188BFF36F8FBFF370
:103360004F8FFEE74FF0500383F31188BFF36F8F49
:10337000BFF34F8FFEE75B1A134423602846FFF725
:10338000BFFF002400E00024FEF71EFF204670BDB2
:103390000124F9E7B80D0020740D0020014B012233
:1033A0001A607047BC0D0020054B1B6833B1054BFC
:1033B0001B680BB100207047022070470120704746
:1033C0008C0D0020380D002000284CD038B5044664
:1033D000274B1B68834208D04FF0500383F31188BA
:1033E000BFF36F8FBFF34F8FFEE7836C43B94FF08E
:1033F000500383F31188BFF36F8FBFF34F8FFEE746
:10340000013B8364C16A426C91422ED00BB1002013
:1034100038BD051D2846FEF74AFE70B9E26A02EB88
:1034200082039B001349CB583BB9012303FA02F2F4
:1034300011490B6823EA02030B60606CE062C0F183
:103440000703A361012404FA00F30B4A11680B433C
:10345000136000EB80002946064B03EB8000FEF76B
:1034600002FE2046D4E7002070470020D0E700BFCE
:10347000940C0020A00C0020400D00200C480D49A9
:103480000D4A002302E0D458C4500433C4188C42BF
:10349000F9D30A4A0A4C002301E013600432A24225
:1034A000FBD3FDF79DFE00F015F8FDF704FE704715
:1034B00000000020C00900202C9D0008C009002049
:1034C000080E0020FEE70000014B1868704700BF9F
:1034D0001000002070B50D4E0D4D761BB61006D0B5
:1034E000002455F8043B01349847A642F9D1094E0F
:1034F000094D06F07BF9761BB61006D0002455F86E
:10350000043B01349847A642F9D170BD209D0008C4
:10351000209D0008289D0008209D0008024B0146C0
:10352000186800F00BB800BF10000020024B0146E5
:10353000186803F0B1BC00BF100000202DE9F04F67
:1035400001F10B05162D064683B025D8102900F28F
:10355000B88000F0F1FA102518224FF0020CB54F98
:103560003A445368A2F108018B4200F0B7805A68D0
:10357000D96822F003021A449C683046E1608C60EE
:10358000516803F1080441F00101516000F0DAFADA
:10359000204603B0BDE8F08F35F0070500F19180BB
:1035A000A94200F28E8000F0C7FAB5F5FC7FC0F0AA
:1035B00094816B0A00F08C80042B00F26A81AB09C5
:1035C00003F1390C03F138044FEACC00994F384429
:1035D00043680838984206D10CE0002980F2268121
:1035E000DB68984206D05A6822F00302511B0F296B
:1035F000F3DDA4463C69DFF840E274457AD06268A6
:1036000022F00302531B0F2B00F37681002BC7E936
:1036100004EE80F26781B2F5007F80F0198101210C
:10362000D30852090B4491407A6857F833000A4393
:1036300007EBC3010839A060E1607A6047F83340C6
:10364000C46001214FEAAC039940914259D811421C
:1036500006D12CF0030C490011420CF1040CFAD0F5
:1036600007EBCC0948466446D0F80C80404508D1A9
:103670001CE1002B80F22181D8F80C80404500F03D
:103680001581D8F8042022F00302531B0F2BF0DD24
:1036900008EB050145F00105C8F804503046D8E9AB
:1036A0000264F460A66043F00104C7E904114C60B1
:1036B000C1E902EE48F8023000F044FA08F10804CB
:1036C00002E00C2300243360204603B0BDE8F08FF5
:1036D0004FF400704FF0400C3F2477E7D3689A42D4
:1036E00008BF0CF1020C7FF442AF3C69DFF848E1FF
:1036F000744584D101217A684FEAAC039940914224
:10370000A5D9BC68636823F003094D4503D8A9EB2C
:1037100005030F2B7ADCDFF824B1494BDBF80020DE
:103720001B6801322B4404EB090A00F02F8103F5DA
:1037300080530F3323F47F6828F00F08414630464A
:1037400000F070FA411C024600F0EF80824500F262
:10375000EA803C4B196841440846196000F04981F1
:10376000DBF80010019301311BBFA2EB0A0A5044A1
:10377000CBF80020186012F0070B00F01181CBF19C
:1037800008010A44CBF5805190440831A1EB0801AF
:10379000C1F30B0A51463046009200F043FA421C36
:1037A000DDE9002300F04B81801A00EB0A0819685C
:1037B00048F001005144BC42BA601960506000F00A
:1037C0002481B9F10F0F40F222814FF0050E60689D
:1037D000A9F10C0C2CF0070C00F0010040EA0C00E1
:1037E0006060BCF10F0F04EB0C00C0E901EE00F2C9
:1037F0002E8114465068144B1A688A4238BF1960EB
:10380000124B1A688A4238BF196090E0621943F07F
:10381000010345F0010565603046BA600834536025
:1038200000F090F9204603B0BDE8F08FD9681A4443
:10383000A2E600BF40040020480400204808002001
:10384000F00D0020C00D0020E80D0020EC0D002040
:10385000B2F5206F4FEA52235FD3142B00F2B180F0
:1038600003F15C01C9005B33781879580838884245
:1038700000F08F804B6823F00303934202D98968DC
:103880008842F7D1C8687A68C4E902108460CC60C5
:10389000D7E6142B59D9542B00F29B802B0B03F144
:1038A0006F0C03F16E044FEACC008FE60134A307DE
:1038B00000F108007FF4D8AE53E044464244536818
:1038C000D8F80C1043F00103536054F8083F304619
:1038D000D9608B6000F036F9F6E64FEAD50C05F1B9
:1038E00008023CE622445368304643F0010353602B
:1038F00000F028F90834E7E6611945F00105656034
:1039000043F00105C7E904113046C1E902EE4D60FC
:10391000A35000F017F90834D6E6930903F13901F2
:10392000C9003833A0E7BC425ED0BC68606820F0B4
:1039300003084545A8EB050302D80F2B3FF766AFF8
:10394000304600F0FFF80024BEE603F15C0C03F102
:103950005B044FEACC0039E659F808394B4540F092
:1039600095801CF0030F0CF1FF3CF5D17B6823EA36
:1039700001037B60490099423FF6C3AE11B9C0E62E
:10398000490004341942FBD0A44669E603F110084B
:10399000D4E601229B109A407B681A437A6073E751
:1039A00002EB08014942C1F30B0A5146304600922E
:1039B00000F038F9431CDDE900237FF4F5AEDA4668
:1039C000F5E6542B26D8130B03F16F01C9006E33B3
:1039D0004AE7B3F5AA7F26D8EB0B03F1780C03F185
:1039E00077044FEACC00F1E5294B18684044186091
:1039F000B6E6CAF30B0CBCF1000F7FF4B1AEBC68A5
:103A0000C84448F001006060F5E61446F3E601237F
:103A1000536095E7B3F5AA7F24D8D30B03F178015F
:103A2000C900773320E740F25452934224D8AB0CBC
:103A300003F17D0C03F17C044FEACC00C6E5ABF149
:103A4000080BD8444FF0000AA8EB0208AFE604F1D7
:103A500008013046009303F01FFABC68009B6068C1
:103A60001968C8E640F254518B420BD8930C03F10D
:103A70007D01C9007C33F7E64FF47E704FF07F0C78
:103A80007E24A3E54FF47E717E23EDE67B6871E72B
:103A9000C00D0020830730B548D0541E002A3FD007
:103AA0000346CAB201E0013C3AD303F8012B9D075B
:103AB000F9D1032C2DD9CDB245EA05250F2C45EAC5
:103AC000054536D9A4F1100222F00F0C03F1200EA7
:103AD000E6444FEA121C03F1100242E9045542E9A0
:103AE000025510327245F8D10CF1010214F00C0F9E
:103AF00003EB021204F00F0C13D0ACF1040323F01B
:103B000003030433134442F8045B9342FBD10CF0EB
:103B100003042CB1CAB21C4403F8012B9C42FBD114
:103B200030BD64461346002CF4D1F9E70346144631
:103B3000BFE71A46A446E0E7014803F051BC00BFC6
:103B4000F80D0020014803F04DBC00BFF80D002027
:103B50000FB400B5074A83B004AB106853F8042BC8
:103B60008168019300F076F903B05DF804EB04B0CE
:103B7000704700BF1000002030B5054689B00846E8
:103B80000C4600F039F901210223214A04940692DF
:103B9000AA6B04AC0590084401940791AC680293A9
:103BA000039022B3636E13F0010FB4F90C309AB294
:103BB00001D1980525D5910406D4626E43F40053D3
:103BC00022F40052A3816266284601AA214603F02E
:103BD00063FA636E002814BF4FF0FF350A25DA0739
:103BE00002D4A3899B0506D5284609B030BD2846D6
:103BF00003F05AF8D6E7A06D03F0F4FB284609B0AD
:103C000030BDA06D03F0ECFBB4F90C309AB2D2E7F2
:103C100018990008024B01461868FFF7ADBF00BFB6
:103C200010000020002238B5064D044608462A60E0
:103C3000FDF7ACFA431C00D038BD2B68002BFBD03D
:103C4000236038BD040E00202DE9F043694C0E4678
:103C5000D4F80080174604461D4683B0B8F1000F23
:103C600003D0D8F83830002B77D0022F05D0012FA1
:103C700000F2AC80002DC0F2A980636EDA0752D545
:103C80002146404602F0DCFF216B41B104F14003C4
:103C9000994202D0404603F0FFF80023236300233B
:103CA000B4F90CC0A3611CF0800F636064D12CF4E4
:103CB0004A6C2CF0030C022FA4F80CC06AD001ABA4
:103CC000214640466A4603F0FFFBA3891843A081C2
:103CD000002D2FD0002E2ED0D8F83830002B38D021
:103CE000009BC4E90465AB42B4F90C3026601CBFEC
:103CF00043F40063A381012F04BF43F00103A381B8
:103D00009AB213F008032CD0D1075DD500216D4283
:103D1000A561656EA16015F0010527D00025284634
:103D200003B0BDE8F083A3899B05A9D4A06D03F07F
:103D300057FBA5E7009D2846FFF7F0FB0646002845
:103D400047D0A38943F08003A381D8F83830002BF3
:103D5000C6D1404602F0A8FFC2E7404602F0A4FFE9
:103D600083E7A360656E15F00105D7D1930524D5CF
:103D7000284603B0BDE8F0834046216903F08CF883
:103D8000B4F90CC0022F2CF44A6C2CF0030CA4F8EC
:103D90000CC094D100250021012204F143032360CB
:103DA0002361636E4CF0020CD807A4F80CC0A1602C
:103DB0006261DDD41CF4007FDAD1A06D03F012FB48
:103DC000284603B0BDE8F083A560CBE74FF0FF3590
:103DD000CEE7DDF80090A94504D04846FFF79EFBEA
:103DE000064620B94FF0FF35B4F90CC0D3E74D4675
:103DF000A7E700BF1000002020F0030110F003002F
:103E0000C0F1000051F8043B00F1040C4FEACC0C67
:103E10006FF000021CBF22FA0CF213434FF0010CAA
:103E20004CEA0C2C4CEA0C4CA3EB0C0222EA0302E9
:103E300012EACC1204BF51F8043B0430F4D0C2F1B2
:103E4000000102EA0102B2FA82F2C2F11F0200EBA3
:103E5000D20070472DE9F04FD5B01C46914607912E
:103E60000546099003F0B4FA02680E9410461792C2
:103E7000FFF7C2FF16901DB1AB6B002B00F01D8247
:103E8000079A536EDD0740F12D81B2F90C2091B2F3
:103E90008F0409D4079B42F400529A8191B21A46CA
:103EA0005B6E23F4005353660E0740F1C080079BFE
:103EB0001B69002B00F0BB8001F01A030A2B00F0F5
:103EC000C48000242BAB224698464D46CDE92944B8
:103ED0002893129400230024CDE914342B78CDE9E3
:103EE0001922CDE91B2218920B92002B00F08F8132
:103EF000AA4604E01AF8013F002B00F0BB80252BF6
:103F0000F8D1BAEB050640F0B9809AF80030002BE2
:103F100000F07D8100234FF0FF324FF02B09202469
:103F20001F469AF8016008920AF1010A8DF8833061
:103F30000A930AF1010AA6F120035A2B00F2E1804C
:103F4000DFE813F00503DF00DF000003DF00DF0020
:103F5000DF00DE02DF00DF006A006E02DF005502D4
:103F60007802DF0073025B005B005B005B005B00BC
:103F70005B005B005B005B00DF00DF00DF00DF0059
:103F8000DF00DF00DF006C01DF00EA01C4016C012B
:103F90006C016C01DF00DF00DF00DF00D002DF001A
:103FA000DF002302DF00DF00DF00F801DF00920204
:103FB000DF00DF008707DF00DF00DF00DF00DF005A
:103FC000DF00DF00DF006C01DF00EA01C6016C01E9
:103FD0006C016C01B602C601BF01DF00C302DF0045
:103FE0005A022502A402BF01DF00F8017200840713
:103FF000DF00DF006507DF0072000022A6F130035A
:104000001AF8016B02EB820203EB4202A6F13003C5
:10401000092BF5D90A928EE70E9B53F8042B002A40
:104020000A920E93C0F2E0819AF8006081E7079D42
:104030000998294601F0FCFC002841F04D83A9892C
:1040400001F01A030A2B7FF43CAF079AB2F90E3045
:10405000002BFFF636AF536ED80702D4890541F125
:10406000488123464A460799099855B0BDE8F04F64
:1040700001F09CBCBAEB050600F0C9802A9BC8E998
:10408000005633442A93299B0133072B299305DCDF
:1040900008F108080B9B33440B9336E707990998FE
:1040A00028AA04F085F980B90DF1AC08F2E7079968
:1040B000099828AA04F07CF9002800F099800D9B4B
:1040C0001BB11946099802F0E7FE079A536ED9070B
:1040D00040F1E88093895B0601F10A830B9855B0A3
:1040E000BDE8F08F079BB3F90C20900591B23FF526
:1040F000CFAE1D46986D03F073F9B5F90C2091B25F
:10410000C6E6002E00F08380012300228DF8EC60CB
:1041100006933BAD8DF883200C930D9208920F927D
:104120001392109217F0020302D006990231069101
:1041300017F0840B07D10A990698A1EB0009B9F191
:10414000000F00F390832A9C82B10122C8F804205A
:10415000299A013401320DF18301072A2A94299208
:10416000C8F8001000F3D88308F108087BB10223D7
:10417000C8F80430299B0234013321AA072B2A9462
:104180002993C8F8002000F3D58308F10808BBF193
:10419000800F00F08882089B0C9AA3EB020BBBF106
:1041A000000F00F3CB82FB0500F11F820C9BC8F8C7
:1041B00000501C44C8F80430299B2A940133072B73
:1041C000299300F3448308F10808780705D50A9B72
:1041D000069A9D1A002D00F3B983DDE90A2306999A
:1041E0008A42ACBF9B185B180B93002C7FF45FAF27
:1041F000002329930D9B1BB10D99099802F04CFEE9
:1042000055460DF1AC082B78002B7FF471AE2A9B3C
:10421000002B41F010820023299356E70E9B0733B1
:1042200023F00702F2E80234CDE91434DDE9143456
:1042300024F00044994618460E9221464FF0FF3272
:10424000AB4BFCF751FC002840F01885484621464E
:104250004FF0FF32A64BFCF729FC002840F00E85FA
:10426000DDE9140100220023FCF716FC002840F0D1
:1042700065879DF88320002103209E4D9E4B27F0EB
:1042800080070D910690472EC8BF1D4608910C90DF
:104290000F9113911091002A3FF444AF069B013314
:1042A00006933FE7079B9B899A053FF514AF079C50
:1042B000A06D03F097F8A3890DE7099802F0F4FCCC
:1042C000DEE59AF8006047F0200732E647F0100775
:1042D000BA060E9B40F16E84073323F007031A469B
:1042E0005B6852F8084B99460E92002BC0F26F841F
:1042F000089B013300F0FB8254EA090327F0800B8E
:1043000040F0F682089B002B40F0F7825F460023C6
:1043100054AD08930C933DE1012000220E9B0690C2
:1043200053F8041B3BAD8DF883208DF8EC100E93F1
:104330000C90F2E64FF000090E9C089B54F8045BC9
:104340008DF88390002D00F0A1855A1C00F0A58601
:104350001A464946284603F0E7F80D90002801F078
:1043600050810D9B9DF883205B1B0C9323EAE37324
:10437000CDF820900E940693CDF83490CDF83C9073
:10438000CDF84C90CDF8409085E747F0100717F036
:10439000200900F0F2830E9B073323F00703D3F8C4
:1043A000049053F8084B0E93002327F4806B0022EF
:1043B0008DF88320089A511C00F0D48054EA09013A
:1043C0002BF0800740F0CD80002A40F00486002BBF
:1043D0009DD11BF001030C9300F0308430230DF2CB
:1043E0004F158DF84F31D5E00A9B5B420A939AF83E
:1043F000006047F004079CE5BD0600F1FD84FC0663
:1044000000F1EE85780600F1B286B90540F1E88545
:104410000E9B0B9953F8042B554611700E93F2E640
:104420009AF800608DF8839083E59AF8006047F071
:1044300080077EE5524612F8016B2A2E01F08D822C
:10444000A6F13003092B924698BF002201F2E580C5
:104450001AF8016B02EB820203EB4202A6F1300371
:10446000092BF5D9089266E547F0100B1BF02009DF
:1044700000F091830E9B073323F007031A4652F88E
:10448000084BD3F804900E92012390E7302278264F
:104490000E9B8DF8842053F8044B184A0E934FF06E
:1044A0000009022347F0020B8DF8856018927EE721
:1044B0009AF80060682E03BF9AF8016047F400770D
:1044C0000AF1010A47F0400733E59AF800606C2EC4
:1044D00003BF9AF8016047F020070AF1010A47F08C
:1044E000100726E59AF8006047F0080721E500BFAD
:1044F000FFFFEF7F1C990008209900082C99000805
:10450000099E304602F064FF436818461B93FFF78C
:1045100073FC034630461C931E4602F059FF836825
:104520001993002E3FF480AD199B002B3FF47CAD16
:10453000199B1B78002B3FF477AD9AF8006047F485
:104540008067F6E49AF8006047F00107F1E49DF80F
:104550008330002B7FF468AD9AF800608DF88340BB
:10456000E7E4BB46012B00F0C381022B54AD1FD101
:10457000189A04F00F03D35C240944EA09744FEA43
:10458000191905F8013D54EA0903F2D15F4654AB0D
:104590005B1B0C93089A0C9900238A42B8BF0A4609
:1045A0000D9306920F939DF883201393109372E658
:1045B00004F00703E40844EA49744FEAD9093033A8
:1045C00054EA09012A4605F8013DF1D11BF0010F1B
:1045D000DCD0302BDAD03023023A05F8013C54AB62
:1045E0009B1A5F4615460C93D4E7652E40F3E9808D
:1045F000DDE9140100220023FCF744FA002800F052
:10460000E1810123C8F80430299BC04A01330134F9
:10461000072B2A942993C8F8002000F3BF8408F1DF
:104620000808229B129A934280F2DC82169B179A0A
:104630001C44C8E90023299B2A940133072B2993A2
:1046400000F3178408F10808129B5D1E002D7FF708
:10465000BCAD102D41F35D81DFF8B492224649468E
:104660001026B946299B0F46DDF824B0079C05E0CB
:1046700008F10808103D102D40F39D8401331032DD
:10468000072BC8E90076CDE92932F1DD21465846ED
:1046900028AA03F08DFE00287FF411ADDDE9293250
:1046A0000DF1AC08E6E70A9B069AA3EB020BBBF1FF
:1046B000000F7FF770ADBBF1100F41F35280DFF8B0
:1046C000509241462046A8464C461023299A079D01
:1046D000DDF8249006E0ABF1100BBBF1100F01F1F7
:1046E000080119DD01321030072AC1E90043CDE984
:1046F0002920F0DD2946484628AA03F059FE002863
:104700007FF4DDACDDE92920ABF1100BBBF1100F1C
:104710004FF010032BA9E5DC4546A1468846044628
:1047200001325C44072ACDE92924C8F80090C8F872
:1047300004B000F3918308F108082CE5BBF1100FD9
:1047400040F3E384DFF8C89141462046A8464C4632
:104750001023299A079DDDF8249006E0ABF1100B99
:10476000BBF1100F01F1080119DD01321030072AE9
:10477000C1E90043CDE92920F0DD2946484628AAB1
:1047800003F016FE00287FF49AACDDE92920ABF196
:10479000100BBBF1100F4FF010032BA9E5DC4546C1
:1047A000A1468846044601325C44072ACDE9292403
:1047B000C8F80090C8F804B000F3D28108F10808E6
:1047C000F1E4129B012B40F382810123299E0134E5
:1047D0001E44072EC8F800502A94C8F804302996C1
:1047E00000F36C8308F10808169B0136179A1C44E5
:1047F000072EC8E90023CDE9296400F36C8308F192
:1048000008080022DDE914010023FCF73BF9002829
:1048100040F07A81129B0136013B01351C44072E82
:10482000C8F800502996C8F804302A9400F35F8134
:1048300008F108081A9B01361C44C8F80430072EFA
:1048400024ABCDE92964C8F800307FF7BCAC0799E8
:10485000099828AA03F0ACFD00287FF430AC2A9C0C
:104860000DF1AC08B1E4B9F1100F40F3C686DDE9F3
:1048700029214046CDE91D36B84610244F46079EF3
:10488000A946099D04E0103F102F00F1080016DD35
:104890000132204B1031072AC0E90034CDE929212B
:1048A000F1DD3146284628AA03F082FD00287FF476
:1048B00006ACDDE92921103F102F2BA8E8DC4D467E
:1048C000DDE91D36B9464746804609EB0104013251
:1048D0001049072ACDE92924C8F80490C8F8001027
:1048E00000F340839DF8832008F108082CE4BB46C0
:1048F0000A2C79F1000380F0FB82012330345F46FB
:104900008DF84F410C930DF24F1543E65C9900086A
:1049100070990008609900080799099828AA1D93C2
:1049200003F046FD00287FF4CAAB2A9C1D9B0DF1C5
:10493000AC081BE40799099828AA03F039FD002860
:104940007FF4BDAB2A9C0DF1AC0820E4102D40F3A0
:10495000BE861026299B099FDDF81C9004E0103DBF
:10496000102D08F1080817DD0133BA4A1034072B5F
:10497000C8E90026CDE92934F1DD4946384628AAA0
:1049800003F016FD00287FF49AABDDE92934103DD1
:10499000102D0DF1AC08E7DC0133AE4A2C44072B97
:1049A000CDE92934C8F80450C8F800207FF715ACC9
:1049B0000799099828AA03F0FBFC00287FF47FAB35
:1049C0002A9C0AE42299002940F31081DDF84090E6
:1049D000129B9945A8BF9946B9F1000F0BDD299BA1
:1049E0004C440133072BC8E900592A94299300F35A
:1049F000818508F10808109EB9F1000FA8BFA6EB49
:104A00000906002E00F3F582DDF840B07905AB44CD
:104A100000F1AC84229B129A934202DBFA0740F128
:104A20009283169A17991444C8E90012299A2A9475
:104A30000132072A299200F3A88508F10808129A82
:104A4000AE18A6EB0B06D51AAE42A8BF2E46002E16
:104A50000DDD299B34440133072BC8F800B0C8F89A
:104A600004602A94299300F3FC8508F10808002EBD
:104A7000A8BFAD1B002D7FF7A8AB102D40F34987D1
:104A8000DFF8D491224649461026B946299B0F46A5
:104A9000DDF824B0079C05E008F10808103D102D52
:104AA00040F3898201331032072BC8E90076CDE943
:104AB0002932F1DD2146584628AA03F079FC002866
:104AC0007FF4FDAADDE929320DF1AC08E6E7FE0727
:104AD0003FF57BAE0123299E01341E44072EC8F802
:104AE00000502A94C8F8043029967FF7A1AE0799A0
:104AF000099828AA03F05CFC00287FF4E0AADDE90D
:104B000029640DF1AC0895E6129B5D1E002D7FF720
:104B100091AE102D40F31987224608974FF0100BE5
:104B2000DFF83491099C079F05E008F10808103D63
:104B3000102D40F3C78201361032072EC8E9009BC2
:104B4000CDE92962F1DD3946204628AA03F030FC80
:104B500000287FF4B4AADDE929620DF1AC08E6E78C
:104B60000799099828AA03F023FC00287FF4A7AA34
:104B70002A9C0DF1AC08FFF716BB17F0100377D194
:104B800017F0400200F0AC820E9A994652F8044B9E
:104B90000E92A4B208E41BF010030E9A54D11BF03D
:104BA00040014DD052F8044B99460E920123A4B215
:104BB000FFF7FDBB53F8044B0E93FB0653D47D0661
:104BC0004ED544F3C0394B4624B2FFF78EBB2D239C
:104BD00064428DF88330BB464FF0010369EB49090D
:104BE000FFF7E8BBF8077FF5F0AA1FE50123C8F837
:104BF0000430299B194A01330134072B2A94299345
:104C0000C8F8002000F3688408F10808002940F083
:104C10002582129A07F0010313433FF4D6AA169B8C
:104C20001799E218C8E90013299B2A920133072B30
:104C3000299300F3508308F1080820E254ADA9E459
:104C40001BF4007940F0A08252F8044B01230E922D
:104C5000FFF7ADBB60990008709900085C990008E7
:104C6000B80500F179824FEAE4794B46FFF73DBB86
:104C70000E9B53F8044B0E93FFF796BBDDE914012E
:104C800002460B46FBF730FF002840F0F785612E07
:104C900000F06C85412E00F07F82089B013300F00C
:104CA000948526F02003472B069300F07B85DDE9F1
:104CB000141247F480730F931346002BC0F2F4854F
:104CC0000C9300238B461D930D93069B462B00F0FF
:104CD0002B84452B00F0148508990C9B019102212F
:104CE000009126A9049123A9039122A95A46099863
:104CF000029100F0ADFF069B0546472B40F044862D
:104D000017F0010FB9460F9F40F0F784269B5B1BFD
:104D10001293069B472B00F0F182069B462B00F076
:104D20004284229B1093109B069A013B412A2293B6
:104D300000F08A850021F2B2002B8DF89020B6BFDA
:104D40002D222B22109B8DF89120B8BFC3F10103B7
:104D5000092B40F381850DF19F0C6246BA4F1C462A
:104D6000104687FB0312D917C1EBA20101EB8102A8
:104D7000A3EB42023032632C00F8012C0B4600F109
:104D8000FF32ECDC3033811EDBB28C4502F8013C93
:104D900040F2FF850DF1920101E012F8013B9445CC
:104DA00001F8013BF9D10DF1A1030DF192021B1A9B
:104DB000134424AA9B1A1A93129B1A9A012B1A4481
:104DC0000C9240F39E850C9B169A13440C9300237F
:104DD0000C9A29F4806722EAE27247F480770F93F5
:104DE0000692139310931D9B002B40F0B0829DF808
:104DF00083200893FFF74FBA0E9B0B9853F8041BC0
:104E0000C2175546C1E900020E93FFF7FCB98F4B5C
:104E1000189317F0200949D00E9B073323F007039E
:104E2000D3F8049053F8084B0E93F80709D554EAC9
:104E3000090306D030238DF8856047F002078DF80E
:104E40008430022327F4806BFFF7B1BABB46FFF72B
:104E50000DBB7F4B1893DCE70799099828AA03F04C
:104E6000A7FA00287FF42BA92A9C0DF1AC08FFF7C4
:104E700092B90799099828AA03F09AFA00287FF4B2
:104E80001EA92A9C0DF1AC08FFF7DEBB062B2946B4
:104E900028BF06232A4608950D9506936D4D0E945E
:104EA0000C930F9113911091FFF7F5B917F01003C0
:104EB00069D00E9B53F8044B0E93B6E707990998F7
:104EC00028AA03F075FA00287FF4F9A8DDE929641F
:104ED0000DF1AC0888E40799099828AA03F068FA4C
:104EE00000287FF4ECA8DDE929640DF1AC0888E422
:104EF00000230BF48062CDE90CA8069692461E466C
:104F0000DDF8648054AF0CE00023204649460A22B5
:104F1000FBF728FE0A2C79F100031BD304468946CF
:104F20002F4620460A2200234946FBF71BFE30325B
:104F30007D1E013607F8012CBAF1000FE4D098F875
:104F400000309E42E0D1FF2EDED00A2C79F1000322
:104F500080F0E080CDF864801296DDE90CA8069E12
:104F6000FFF714BB0799099828AA1D9303F020FAAC
:104F700000287FF4A4A89DF883202A9C1D9B0DF196
:104F8000AC08FFF7E1B817F0400200F0B4800E9AC9
:104F9000994652F8044B0E92A4B246E70799099835
:104FA00028AA03F005FA00287FF489A82A9C0DF1AD
:104FB000AC08FFF736BB14463A464F4691460133DC
:104FC0002C44072BC8F80090C8F80450CDE92934C8
:104FD0007FF7F9A83BE4012BBB467FF4C6AA8CE41B
:104FE0000E9B0B9953F8042B554611600E93FFF757
:104FF0000AB9102E40F3AD84DFF85C904246484673
:105000002146A846B9464FF0100B0746299B099C3C
:10501000079D04E00832103E102E40F34882013311
:105020001031072BC2E9007BCDE92931F2DD294699
:10503000204628AA03F0BCF900287FF440A8DDE947
:1050400029312BAAE7E700BF676666662C9900083E
:10505000409900085499000870990008169B179809
:10506000E218C8E90003299B2A920133072B2993F0
:1050700000F3318108F108080029C0F20283129977
:1050800001338C18072BCDE92934C8F80050C8F833
:1050900004107FF798A8FFF7DABB2846CDF82090D8
:1050A0000E94FEF7A9FE20EAE073CDE90C099DF805
:1050B0008320CDF83C90CDF84C90CDF840900693ED
:1050C000FFF7E9B81446089F01362C44072ECDE9B6
:1050D0002964C8F80090C8F804507FF7A9AB06E52A
:1050E00017F400790E9B3DD053F8044B91460E9374
:1050F000E4B2FFF759B917F400790E9B40D053F88A
:10510000044B91460E93E4B28FE6299ADFF84C9255
:10511000FFF749BB1C9B1B99ED1A1A46284603F062
:10512000D7F898F801300BB108F10108204649463C
:105130000A2200230026FBF715FDEFE62D228DF84D
:105140008320FFF798B8129AAE18A6EB0B06D51A73
:10515000AE42A8BF2E468AE444F3C0194B4664B25F
:10516000FFF7C3B853F8044B0E93FFF71DB90E9B1E
:105170000B9953F8042B554611800E93FFF743B853
:1051800053F8044B0E9350E652F8044B8946012322
:105190000E92E4B2FFF70BB930238DF88430582318
:1051A0008DF88530089B47F00204632B00F3E382FF
:1051B00000233BAD0D9347F481730F93DDE9141287
:1051C0001346002B2746C0F240820C9300238B46E7
:1051D0001D9326F020030693612E00F01783412EC5
:1051E0007FF473AD22AA58460C9902F0F3FF002217
:1051F0004FF07F53FBF7DEF902460B46CDE9102353
:1052000000220023FBF73EFC08B101232293544BFC
:105210000C93089BCDE912A6CDE91E78DDE9106755
:10522000AB46DDF830A003F1FF39109506E000220F
:10523000002309F1FF39FBF725FCE8B90022494BAF
:1052400030463946FBF7B6F90F460646FBF762FCD7
:105250000446FBF745F90B46024639463046FAF755
:10526000F1FF1AF80430B9F1FF3FD8464D46064623
:105270000F460BF8013BDAD13046394600223A4B53
:10528000A946DDF848A0109DCDF84880CDE9100171
:10529000DDF87C80139E1E9FFBF71CFC002840F06D
:1052A0004482DDE9100100222F4BFBF7EBFB10B12C
:1052B000E10700F13A824B46002B06DB3022013336
:1052C0005B440BF8012B5B45FBD1ABEB0503B94607
:1052D00012930F9F1DE50799099828AA03F068F813
:1052E00000287EF4ECAEDDE9293222990DF1AC08FC
:1052F000C2E6906D02F076F8FEF7B3BE229BDA1C90
:10530000109302DB089A934204DD023E26F020034C
:10531000069308E5109B129A9342C0F2828119F01D
:10532000010F00F0A882169A13440C9319F4806FB1
:1053300000F09082109B6726002B00F346810C9BA7
:1053400023EAE373069300230F9313934BE52D2277
:1053500000238DF883200893FEF7A0BF7099000802
:1053600040990008000030400000E03F129B424698
:10537000DDF84C80EB185E460893CDF830A010970E
:105380002146199FDDF87090DDF824A0DDF81CB0EF
:105390000F9B1395B8F1000F2ED0002B6CD1013F5D
:1053A00008F1FF381B9B4944C2E90039299B2A9127
:1053B0000133072B299363DC0832089B38789B1B49
:1053C0008342A8BF0346002B1C460ADD29981944D6
:1053D00001300728C2E900632A9129905BDC387804
:1053E0000832002CB4BF0546051B002D15DC064411
:1053F0000F9BB8F1000FD0D1002B3DD1DDE9123564
:10540000EB189E42B346199790460C4628BF9B4620
:10541000DDF830A0109FFFF7FDBA102D40F36F822A
:105420001024299804E0103D102D02F1080216DD29
:105430000130A84B10310728C2E90034CDE9290119
:10544000F1DD5946504628AA02F0B2FF00287EF44A
:1054500036AEDDE92901103D102D2BAAE8DC013024
:105460009C4B29440728CDE92901556013604EDC87
:10547000387808320644BBE70F9B013B0F9391E756
:105480005946504628AA02F093FF00287EF417AE32
:105490002A992BAA91E75946504628AA02F088FF7C
:1054A00000287EF40CAE38782A992BAA99E7454655
:1054B00090463A460C464F46914601333444072BFA
:1054C000CDE92934C8F80090C8F8046000F35D8184
:1054D00008F10808FFF798BA0799099828AA02F076
:1054E00067FF00287EF4EBAD22992A9C0DF1AC08F1
:1054F000FFF78CBB0799099828AA02F059FF0028EA
:105500007EF4DDAD2A9C0DF1AC08FFF774BA594664
:10551000504628AA02F04CFF00287EF4D0AD38781F
:105520002A992BAA064463E708990C9B0191032151
:10553000009126A9049123A9039122A95A4609980A
:10554000029100F085FB03780546302B00F0C08106
:10555000229B089AB94613440F9FEC185846002224
:1055600000230C99FBF78EFA10B12346FFF7CFBB4F
:10557000269BA342BFF4CBAB30215A1C2692197054
:10558000269B9C42F9D8FFF7C2BB0799099828AA25
:1055900002F00EFF00287EF492AD229B2A9C0DF1B2
:1055A000AC08FFF74CBA229A002A109240F3B98156
:1055B000089909F001030B4340F040816626109BD7
:1055C0000C9319F4806F3FF4BAAE19990B78FF2B46
:1055D00000F0D6810024109A204604E00130013109
:1055E000FF2B00F06481934280F26181D21A4B78E4
:1055F000002BF3D10B780134F2E7DDE92921FFF725
:1056000064B9089B9DF883200E9406930C93089030
:105610000F9013901090FEF73EBE00230893FEF704
:105620008ABC129B169A9A18109B0C92002B40F37E
:105630005D816726C5E70799099828AA02F0B8FE98
:1056400000283EF4E8ADFEF740BD26F020030693A7
:105650002D22DDE914349B4604F100431D920C9386
:10566000BAE50799099828AA02F0A2FE00287EF45C
:1056700026AD229D129B2A9C0DF1AC085D1BFFF705
:10568000F6B94E42103180F2818141461024A8467D
:10569000DFF84090DDF824B0079D04E00831103EAB
:1056A000102E40F3998001331032072BC1E900948A
:1056B000CDE92932F2DD2946584628AA02F078FEC3
:1056C00000287EF4FCACDDE929322BA9E7E7299B11
:1056D000FFF762B970990008079B5B6EDD0707D47E
:1056E000079B9B899C0503D4079B986D01F07AFE6C
:1056F0004FF0FF330B93FEF7F1BC089BEC182DE73E
:105700000221009108995A464C1C26A9049123A90C
:10571000039122A90C9B09980194029100F098FA38
:105720000546B9462C440F9F18E7129B26930C9B05
:105730001BF8012CD97B5B468A4209D1302003F843
:10574000010C269B5A1E269213F8012C9142F6D08A
:10575000392A0BBF0C9A0132927AD2B203F8012C8B
:10576000B3E5299ADFF83492FEF7DABF30238DF8DB
:105770008430782314E50998591CFDF7DFFE0546AF
:10578000002800F0F6800D9015E50799099828AAE1
:1057900002F00EFE00287EF492AC2A9C0DF1AC08BB
:1057A000FFF732B9089B002B08BF0123089347F489
:1057B00080730F93159B002BC0F2A980DDF850B0C9
:1057C0001D900C930D90FFF787BA0623089326F0DF
:1057D00020030693FFF76BBA4546884601333244EF
:1057E000072BCDE92932C8F80090C8F804607FF78C
:1057F00022AA0799099828AA02F0DAFD00287EF467
:105800005EACDDE929320DF1AC0838E422AA584635
:105810000C9902F0DFFC00224FF07F53FAF7CAFE2A
:1058200002460B46CDE9102300220023FBF72AF99C
:1058300008B1012322935A4B0C93EAE4169B662687
:10584000D31819440C91BCE606F10F020121D2B223
:10585000FFF772BA672672E500295FD130228DF812
:1058600092200DF19302303302F8013B24ABD31A9E
:105870001A93FFF7A1BA109B0C9357E5159B0320D1
:10588000002BB8BF2D224FF00003A8BF9DF8832046
:1058900019460D93434D444BB8BF8DF8832027F034
:1058A00080070690FEF7EFBC00230D93D0E6199118
:1058B000109213900F940F9A139B1C9913440C9AF7
:1058C00001FB03230C9323EAE3730693FFF78BBAE0
:1058D0005846002200230C99FBF7D4F800287FF4E7
:1058E00037AE089BC3F10103229332E6C3F10103F3
:1058F0001A4422EAE27367260C92069323E529985C
:10590000ADE519F0010F3FF462AAFFF75CBA0D9004
:105910009EE6299BDFF88490FFF751BB0DF19202C0
:10592000A1E7089A09F0010959EA020304D1012309
:10593000662606930C9306E5169B662601331A44E9
:1059400022EAE2730C920693FDE4DFF85090FFF731
:10595000BBBB299BDFF84490AFE50E9B9AF8016032
:10596000924653F8042B0E9342EAE2730893FEF733
:10597000E0BA079A938943F040039381FEF7A5BBF1
:1059800000230F93139396E7089CCAE6DFF80C9068
:1059900024E702231A93FFF70FBA00BF709900089B
:1059A0002C9900082499000828990008F0B54FF4B4
:1059B000806C1546002406461F46ADF26C4D1AABAE
:1059C000009304938B8916A823F00203ADF80C30E2
:1059D0004B6E06941993CB890C46ADF80E30CB690B
:1059E000CDF808C007934B6ACDF814C0099301F0B5
:1059F000F3FC2A463B4669463046FEF72BFA051E65
:105A000007DB6946304601F01BF9002818BF4FF04C
:105A1000FF35BDF80C305B0603D5A38943F0400386
:105A2000A381169801F0DAFC28460DF26C4DF0BD0A
:105A300038B5334B05461B680C460BB19A6B12B355
:105A4000B4F90C3018079AB225D5216900292DD058
:105A500012F0010007D000256069A5604042A061F6
:105A600039B1002038BD950758BF6069A060002992
:105A7000F7D1120658BF0846F4D543F040034FF063
:105A8000FF30A38138BD184601F00EF9B4F90C308F
:105A900018079AB2D9D4D1062AD5520714D421694D
:105AA00043F00803A3819AB20029D1D102F42070F7
:105AB000B0F5007FCCD02146284601F095FCB4F922
:105AC0000C3021699AB2C3E7216B51B104F1400255
:105AD000914204D0284601F0DFF9B4F90C300022DD
