:020000040800F2
:1000000000500020211D0008790400087B0400082E
:100010007D0400087F04000881040008000000003F
:100020000000000000000000000000007113000844
:100030008304000800000000111400088504000873
:10004000691D0008691D0008691D0008691D000878
:10005000691D0008691D0008691D0008691D000868
:10006000691D0008691D0008691D0008691D000858
:10007000691D0008691D0008691D0008691D000848
:10008000691D0008691D0008691D0008691D000838
:10009000691D0008691D0008691D0008691D000828
:1000A000691D0008691D0008691D0008691D000818
:1000B000691D0008691D0008691D0008691D000808
:1000C000691D0008691D0008691D0008691D0008F8
:1000D000691D0008691D0008691D0008691D0008E8
:1000E000691D0008691D0008691D00080000000066
:1000F0000000000000000000000000000000000000
:0C01000000000000000000005FF808F1A3
:1001100010B5054C237833B9044B13B10448AFF341
:1001200000800123237010BD54080020000000004F
:10013000043A000808B5034B1BB103490348AFF369
:10014000008008BD0000000058080020043A0008A4
:10015000844641EA000313F0030349D1403A23D314
:100160000B6803604B6843608B688360CB68C36037
:100170000B6903614B6943618B698361CB69C3611F
:100180000B6A03624B6A43628B6A8362CB6AC36207
:100190000B6B03634B6B43638B6B8363CB6BC363EF
:1001A00040304031403ADBD230320BD30B68036031
:1001B0004B6843608B688360CB68C360103010313C
:1001C000103AF3D20C3205D351F8043B40F8043B0B
:1001D000043AF9D2043208D0D2071CBF11F8013B0F
:1001E00000F8013B01D30B8803806046704700BFD5
:1001F000082A13D38B07B1D010F00303AED0C3F19C
:100200000403D21ADB071CBF11F8013B00F8013BC5
:10021000A4D331F8023B20F8023B9FE7043AD9D33C
:10022000013A11F8013B00F8013BF9D20B78037059
:100230004B7843708B7883706046704708B50348ED
:1002400002F026F9642001F002F8F8E7703A00089D
:1002500008B5034802F01CF9642000F0F8FFF8E745
:10026000783A000808B5012000F0F1FFFBE7000034
:10027000034B0360034B0B6080231360704700BF88
:100280007C0A00207C08002010B596B01D4800F0C4
:1002900043F81D4C0DF13C0CA646BEE80F00ACE83F
:1002A0000F009EE807008CE8070000210FA800F06F
:1002B00099FF164B18600DF1200C04F11C0EBEE8DE
:1002C0000F00ACE80F009EE807008CE80700002153
:1002D00008A800F087FF0E4B18600DF1040E04F122
:1002E000380CBCE80F00AEE80F009CE807008EE871
:1002F0000700002101A800F075FF064B186016B03A
:1003000010BD00BFD80A00201C3A00087008002069
:10031000740800207808002008B5054B1860054BCC
:100320001868002302221946806802F0CBF808BD45
:10033000D00A00201000002010B5013801280AD88A
:1003400014464FF0FF3392B20748006800F0D3FE26
:1003500040B9204610BD01F009FD092303604FF0AC
:10036000FF30F7E70520F5E7D00A002084B00F4BF7
:100370009A6942F010029A619A6902F010020192A1
:10038000019A9A6942F020029A619A6902F0200269
:100390000292029A9A6942F004029A619B6903F000
:1003A00004030393039B04B0704700BF0010024096
:1003B00072B6FEE700B591B02822002106A801F030
:1003C000BBFF00230193029303930493059302233D
:1003D000069301230A9310230B9306A800F0C0FA9A
:1003E00068B90F23019300210291039104910591B3
:1003F00001A800F0F5FC20B911B05DF804FBFFF78F
:10040000D7FFFFF7D5FF08B500F000F9FFF7D2FFDF
:10041000FFF7ACFF00F07EF8FFF736FF00F0DDFEDF
:10042000FEE7000000B583B0114B9A6942F001026B
:100430009A619A6902F001020092009ADA6942F028
:100440008052DA61DB6903F080530193019B002243
:100450000F216FF0010000F00FF9064A536823F0F6
:10046000E06343F00073536003B05DF804FB00BF2A
:100470000010024000000140FEE7FEE7FEE7FEE755
:10048000FEE7704708B500F0D3F801F039FC012809
:1004900000D108BD00F0DEFFFBE770B50C46164644
:1004A000002506E0AFF30080214601F8010B01357D
:1004B0000C46B542F6DB304670BD000008B5034679
:1004C0000B4A126842B10A4A106803446A469342D2
:1004D00006D8074A136008BD054A06491160F2E7CD
:1004E00001F044FC0C2303604FF0FF30F3E700BF42
:1004F000D40A0020A00C00204FF0FF3070474FF4CA
:1005000000534B6000207047012070470020704767
:100510007047000008B50A480A4B03604FF4E13306
:10052000436000238360C36003610C2242618361E6
:10053000C36100F0B1FD00B908BDFFF739FFFBE76B
:10054000D80A00200038014010B586B0002302937D
:100550000393049305930268174B9A4201D006B0A7
:1005600010BD03F558439A6942F480429A619A6932
:1005700002F480420092009A9A6942F004029A6161
:100580009B6903F004030193019B4FF400730293F2
:100590000223039303230593084C02A9204600F08D
:1005A000B7F84FF48063029300230393049302A9E6
:1005B000204600F0ADF8D2E70038014000080140C5
:1005C00010B504460E4B18784FF47A73B3FBF0F372
:1005D0000C4A1068B0FBF3F000F086F868B90F2CF5
:1005E00001D901200AE0002221464FF0FF3000F03F
:1005F00043F8054B1C60002000E0012010BD00BF47
:1006000004000020000000200800002008B5074A70
:10061000136843F010031360032000F01BF80F2051
:10062000FFF7CEFFFFF7FEFE002008BD00200240CE
:10063000034A1168034B1B780B441360704700BFDB
:100640001C0B002004000020014B1868704700BFFD
:100650001C0B0020074AD36823F4E0631B041B0C27
:10066000000200F4E060034343F0BF6343F400334F
:10067000D360704700ED00E000B5194BDB68C3F3B1
:100680000223C3F1070CBCF1040F28BF4FF0040C88
:1006900003F1040EBEF1060F18D9033B4FF0FF3EE5
:1006A0000EFA0CFC21EA0C0199400EFA03F322EA3F
:1006B0000303194300280BDB0901C9B200F16040B4
:1006C00000F5614080F800135DF804FB0023E5E7C6
:1006D00000F00F000901C9B2024B1954F4E700BF42
:1006E00000ED00E014ED00E00138B0F1807F0BD2A6
:1006F0004FF0E0235861054AF02182F823100020D2
:10070000986107221A6170470120704700ED00E0F0
:1007100070B582B00024A446A6E0804DAA4210D055
:1007200007D97F4DAA420CD005F58035AA4208D0E2
:1007300013E0A5F58015AA4203D005F57025AA425D
:1007400007D18A68002A58D0012A51D04361082471
:1007500003E0A5F58015AA42F3D0BEF1FF0F4ED8F5
:100760000646BEF1FF0F4CD84FEA8C0233680F25C6
:10077000954023EA050304FA02F2134333604B6801
:1007800013F0805F6ED0674B9A6942F001029A6164
:100790009B6903F001030193019B4FEA9C02951CA6
:1007A000614B53F825600CF003039D000F23AB4011
:1007B00026EA03065D4B984229D003F580639842F0
:1007C00000F08E8003F58063984200F08B8003F583
:1007D0008063984219D004231AE0CC68BDE7CC6846
:1007E0000434BAE7CC680834B7E7CC680C34B4E713
:1007F00003610824B1E70024AFE70424ADE7061D38
:10080000AFE7ACF108029200B0E7032300E0002359
:10081000AB4033430232444D45F822304B6813F469
:10082000803F61D0424A136843EA0E0313604B686D
:1008300013F4003F5ED03E4A536843EA0E03536010
:100840004B6813F4801F5BD0394A936843EA0E0368
:1008500093604B6813F4001F58D0354AD36843EABD
:100860000E03D3600CF1010C0A6832FA0CF353D07A
:10087000012303FA0CF302EA030E33EA0202F1D178
:100880004A68122A3FF649AF122A3FF666AF01A521
:1008900055F822F043070008DB070008E5070008C9
:1008A000F70700085B0700085B0700085B07000804
:1008B0005B0700085B0700085B0700085B07000890
:1008C0005B0700085B0700085B0700085B07000880
:1008D0005B0700085B070008DF070008EB0700085C
:1008E000012395E7022393E7114A136823EA0E03D5
:1008F00013609CE70E4A536823EA0E0353609FE798
:100900000B4A936823EA0E039360A2E7084AD36870
:1009100023EA0E03D360A5E702B070BD00002210E9
:1009200000003110001002400000014000080140AA
:100930000004014082B0084B1B68084AA2FB032355
:100940005B0A00FB03F3019300BF019B5A1E019257
:10095000002BF9D102B0704700000020D34D621087
:10096000002800F0F18170B582B00446036813F0EE
:10097000010F2CD0994B5B6803F00C03042B1DD0A6
:10098000964B5B6803F00C03082B12D06368B3F539
:10099000803F41D0002B55D103F1804303F5043350
:1009A0001A6822F480321A601A6822F480221A60CF
:1009B00037E08A4B5B6813F4803FE7D0874B1B68B6
:1009C00013F4003F03D06368002B00F0BF8123685D
:1009D00013F0020F75D0814B5B6813F00C0F5FD0E2
:1009E0007E4B5B6803F00C03082B54D02369002B6B
:1009F00000F08A807A4B01221A60FFF725FE054637
:100A0000764B1B6813F0020F75D1FFF71DFE401BDC
:100A10000228F5D903209EE1704A136843F480331D
:100A20001360636843B3FFF70FFE05466B4B1B680B
:100A300013F4003FCBD1FFF707FE401B6428F5D924
:100A4000032088E1B3F5A02F09D0644B1A6822F483
:100A500080321A601A6822F480221A60E1E703F1FA
:100A60008043A3F53C331A6842F480221A601A6866
:100A700042F480321A60D4E7FFF7E6FD0546574B93
:100A80001B6813F4003FA2D0FFF7DEFD401B642873
:100A9000F5D903205FE1514B5B6813F4803FA5D18A
:100AA0004E4B1B6813F0020F03D02369012B40F05B
:100AB0004F814A4A136823F0F803616943EAC1038E
:100AC0001360236813F0080F33D0A369002B5CD0A8
:100AD000434B0122C3F88024FFF7B6FD05463F4B88
:100AE0005B6A13F0020F21D1FFF7AEFD401B022815
:100AF000F5D903202FE1394A136823F0F80361691F
:100B000043EAC1031360DCE7354B00221A60FFF7AC
:100B10009BFD0546314B1B6813F0020FD1D0FFF748
:100B200093FD401B0228F5D9032014E10120FFF7B3
:100B300001FF236813F0040F00F09680274BDB6958
:100B400013F0805F34D1254BDA6942F08052DA61CC
:100B5000DB6903F080530193019B0125214B1B6846
:100B600013F4807F26D0E368012B3DD0002B53D1B6
:100B700003F1804303F504331A6A22F001021A627A
:100B80001A6A22F004021A6233E0154B0022C3F8FD
:100B90008024FFF759FD0546104B5B6A13F0020FE6
:100BA000C7D0FFF751FD401B0228F5D90320D2E042
:100BB0000025D3E70B4A136843F480731360FFF7F3
:100BC00043FD0646074B1B6813F4807FCBD1FFF72C
:100BD0003BFD801B6428F5D90320BCE000100240D7
:100BE00000004242007000405F4A136A43F0010374
:100BF0001362E36833B3FFF727FD06465A4B1B6ABF
:100C000013F0020F2FD1FFF71FFD801B41F2883335
:100C10009842F3D903209EE0052B09D0524B1A6A63
:100C200022F001021A621A6A22F004021A62E0E754
:100C30004D4B1A6A42F004021A621A6A42F001022B
:100C40001A62D6E7FFF700FD0646474B1B6A13F012
:100C5000020F08D0FFF7F8FC801B41F2883398425E
:100C6000F3D9032077E0E5B9E369002B72D03E4A5F
:100C7000526802F00C02082A56D0022B17D03B4BC8
:100C800000221A66FFF7E0FC0446374B1B6813F09E
:100C9000007F47D0FFF7D8FC001B0228F5D90320BE
:100CA00059E0314AD36923F08053D361DCE72F4BFD
:100CB00000221A66FFF7C8FC05462B4B1B6813F091
:100CC000007F06D0FFF7C0FC401B0228F5D90320A7
:100CD00041E0236AB3F5803F1AD023494B6823F4DF
:100CE0007413226A606A024313434B601F4B012254
:100CF0001A66FFF7A9FC04461B4B1B6813F0007F24
:100D00000ED1FFF7A1FC001B0228F5D9032022E039
:100D1000154A536823F40033A1680B435360DCE7A2
:100D2000002018E0002016E0012B16D00E4B5B6867
:100D300003F48031226A914211D103F47013626A84
:100D400093420ED1002006E001207047012002E00E
:100D5000012000E0002002B070BD0120FBE701206F
:100D6000F9E70120F7E700BF00100240000042420F
:100D700086B0174B0FCB0DF1180C0CE90F0040F2A9
:100D80000123ADF80430134B5B6803F00C02082A12
:100D900002D0114806B07047C3F3834218326A4448
:100DA00012F8100C13F4803F0DD00A4B5B68C3F3AC
:100DB000404318336B4413F8143C074A02FB00F01D
:100DC000B0FBF3F0E6E7054B03FB00F0E2E700BF02
:100DD000BC3A00080010024000127A0000093D00F1
:100DE000002800F0A08070B50D460446524B1B68E9
:100DF00003F007038B420BD24F4A136823F007031B
:100E00000B431360136803F007038B4240F08D809F
:100E1000236813F0020F17D013F0040F04D0474AD1
:100E2000536843F4E0635360236813F0080F04D061
:100E3000424A536843F460535360404A536823F076
:100E4000F003A1680B435360236813F0010F31D006
:100E50006368012B20D0022B25D0384A126812F08B
:100E6000020F64D035494A6822F0030213434B60F5
:100E7000FFF7EAFB0646314B5B6803F00C03626840
:100E8000B3EB820F16D0FFF7DFFB801B41F28833F4
:100E90009842F0D9032045E0284A126812F4003F36
:100EA000E0D101203EE0254A126812F0007FD9D13E
:100EB000012037E0204B1B6803F00703AB420AD93F
:100EC0001D4A136823F007032B431360136803F0D4
:100ED0000703AB422DD1236813F0040F06D0174A45
:100EE000536823F4E063E1680B435360236813F015
:100EF000080F07D0114A536823F46053216943EA6D
:100F0000C1035360FFF734FF0C4B5B68C3F303135B
:100F10000B4AD35CD8400B4B18600B4B1868FFF79B
:100F20004FFB002070BD012070470120FAE701202F
:100F3000F8E70120F6E700BF002002400010024061
:100F4000A43A00080000002008000020014B1868A7
:100F5000704700BF0000002008B5FFF7F7FF044B03
:100F60005B68C3F30223034AD35CD84008BD00BFCB
:100F700000100240B43A000808B5FFF7E7FF044B41
:100F80005B68C3F3C223034AD35CD84008BD00BFEB
:100F900000100240B43A000810B504460268136914
:100FA00023F44053C1680B43136183680269134300
:100FB00042691A430168CB6823F4B05323F00C0351
:100FC0001343CB600268536923F4407381690B4378
:100FD00053610268134B9A4220D0FFF7BDFF0246CF
:100FE00002EB820202EB820263689B00B2FBF3F227
:100FF0000D48A0FB02314909642303FB11231B01A7
:101000003233A0FB03235B0903F0F00202EB011271
:1010100003F00F03216813448B6010BDFFF7ACFF92
:101020000246DDE7003801401F85EB512DE9F8430A
:1010300005460F4616469946DDF820802C68246840
:1010400037EA04030CBF4FF0010C4FF0000CB4451D
:101050001FD1B8F1FF3FF1D0B8F1000F05D0FFF775
:10106000F3FAA0EB09004045E8D92A68D36823F4D5
:10107000D073D3602A68536923F00103536120239E
:1010800085F83D3085F83E30002385F83C3003205C
:1010900000E00020BDE8F88358B310B5044690F88E
:1010A0003D300BB3242384F83D302268D36823F409
:1010B0000053D3602046FFF76FFF2268136923F4C3
:1010C000904313612268536923F02A035361226815
:1010D000D36843F40053D36000202064202384F8B5
:1010E0003D3084F83E3010BD80F83C30FFF72CFADC
:1010F000D8E7012070472DE9F04182B01E4690F8F4
:101100003D30DBB2202B54D104460D4690460029D9
:1011100053D0002A53D090F83C30012B51D00123FA
:1011200080F83C3000230364212380F83D30FFF732
:101130008BFA0746A4F82480A4F82680A368B3F5A8
:10114000805F05D04FF00008002384F83C3012E0A7
:10115000236913B14FF00008F6E7A8460025F3E72E
:1011600038F8023B2268C3F308035360E28C92B262
:10117000013A92B2E284E38C9BB273B100963B4693
:10118000002280212046FFF751FFE0B9002DE7D073
:1011900015F8012B23685A60E8E700963B460022C9
:1011A00040212046FFF742FF78B9202384F83D30E4
:1011B00000E0022002B0BDE8F0810120FAE7012042
:1011C000F8E70220F6E70320F4E70320F2E784289B
:1011D00001D0033070470020704708B500F0D4FB01
:1011E000002008BD2DE9F04387B004460F4645694D
:1011F000BDB18669AEB1D0F80480D0F80090B0F9E6
:101200000800FFF7E4FF0296019500903B46226933
:101210004946404600F04AFB0590059807B0BDE8F6
:10122000F08365682668D4F81080B4F90800FFF7E9
:10123000CEFF05AB019300903B461FFA88F2314682
:10124000284600F06DFB0128E7D00020E6E708B54E
:1012500000B9012000F0E2FC002008BD00F1080305
:1012600043604FF0FF328260C3600361002303607C
:10127000704700230361704743684B609A688A6037
:10128000516099600861036801330360704730B4AE
:101290000D68B5F1FF3F11D000F108031C465B68F3
:1012A0001A68AA42FAD963684B6099608C606160E1
:1012B000086103680133036030BC70470469F2E7DA
:1012C0000369416882688A60416851605A68824255
:1012D00006D0002202611A68013A1A601868704745
:1012E00082685A60F5E7000082B0002301930D4B3D
:1012F0001B68B3F1FF3F08D04FF0500383F3118810
:10130000BFF36F8FBFF34F8FFEE74FF0500383F3B0
:101310001188BFF36F8FBFF34F8F019B002BFCD061
:1013200002B070470C00002006480068006880F397
:10133000088862B661B6BFF34F8FBFF36F8F00DFCF
:1013400000BF000008ED00E04FF0807340F8043C5F
:1013500021F0010140F8081C034B40F80C3C40F818
:10136000202C4038704700BFE91200080000000040
:10137000074B19680868B0E8F00F80F30988BFF3DD
:101380006F8F4FF0000080F311884EF00D0E704704
:10139000280B00204FF0500383F31188BFF36F8FA9
:1013A000BFF34F8F0B4A136801331360012B00D03A
:1013B00070474FF0E023D3F8043D13F0FF0FF7D050
:1013C0004FF0500383F31188BFF36F8FBFF34F8F3C
:1013D000FEE700BF0C000020094B1B6843B94FF02B
:1013E000500383F31188BFF36F8FBFF34F8FFEE776
:1013F000013B034A13600BB983F31188704700BFA8
:101400000C000020000000000000000000000000B0
:10141000EFF30980BFF36F8F0D4B1A6820E9F00FCF
:1014200010602DE908404FF0500080F3118800F063
:101430001BFC4FF0000080F31188BDE808401968DC
:101440000868B0E8F00F80F30988BFF36F8F70472A
:10145000280B002008B54FF0500383F31188BFF329
:101460006F8FBFF34F8F00F0D1FA28B14FF0E02318
:101470004FF08052C3F8042D002383F3118808BD78
:101480004FF0E022002313619361054B1B6805496F
:10149000A1FB03139B09013B5361072313617047B1
:1014A00000000020D34D621010B582B02A4B1A788C
:1014B000D2B20192FF221A701B78DBB28DF8033092
:1014C0009DF8033003F05003244A1370244B072285
:1014D0001A6009E0224A1368013B13609DF803304B
:1014E0005B00DBB28DF803309DF8033013F0800F02
:1014F000F0D11B4B1B68032B08D04FF0500383F334
:101500001188BFF36F8FBFF34F8FFEE71B02144AA2
:10151000136003F4E0631360019BDBB20E4A1370A7
:101520004FF0E023D3F8202D42F47002C3F8202DB1
:10153000D3F8202D42F07042C3F8202DFFF7A0FF12
:101540000024084B1C60FFF7EFFE00F08DFBFFF757
:10155000CBFE204602B010BD00E400E0200B0020CE
:10156000240B00200C00002010B5044600F046FAC1
:10157000204600F025FC044600F0D4FA204610BDB9
:1015800048B110B5044600F039FA204600F020FCBE
:1015900000F0C8FA10BD7047084B1B681B6823B9E0
:1015A000074B4FF0FF321A607047044B1B68DB6833
:1015B000DB685A68024B1A60704700BF2C0B002092
:1015C000040C00202DE9F04707469846089DDDF8F9
:1015D00024900A9C266B02F18042013A06EB8206B7
:1015E00026F007064FF0000CBCF10F0F0BD811F8D6
:1015F0000C2004EB0C0383F8342011F80C3013B1E9
:101600000CF1010CF0E7002384F84330062D00D9DB
:101610000625E56265644FF0000AC4F848A0201D65
:10162000FFF727FE04F11800FFF723FE2461C5F140
:101630000705A5616462C4F84CA084F850A0424636
:1016400039463046FFF780FE2060B9F1000F01D027
:10165000C9F80040BDE8F08738B5002407E004EB86
:10166000840293000E481844FFF7F8FD0134062C5D
:10167000F5D90C4D2846FFF7F1FD0B4C2046FFF73E
:10168000EDFD0A48FFF7EAFD0948FFF7E7FD0948C5
:10169000FFF7E4FD084B1D60084B1C6038BD00BF20
:1016A000340B0020D80B0020EC0B00200C0C002089
:1016B000380C0020240C00202C0B0020300B0020C4
:1016C00010B50446FFF766FE214A13680133136024
:1016D000204B1B685BB1204B1B686BB91D4B1B6813
:1016E000DA6AE36A9A4207D81A4B1C6004E0194B85
:1016F0001C601368012B28D0184A1368013313604B
:10170000E06A01238340164A11680B43136000EB23
:101710008000211D134B03EB8000FFF7ADFDFFF7A9
:101720005BFE0D4B1B687BB10A4B1B68DA6AE36AF0
:101730009A4209D24FF0E0234FF08052C3F8042DB3
:10174000BFF34F8FBFF36F8F10BDFFF785FFD3E758
:10175000C00B0020280B0020200C0020D00B002004
:10176000D40B0020340B002010B5044690F8513003
:1017700063B1012B11D0022B0ED04FF0500383F335
:101780001188BFF36F8FBFF34F8FFEE7006BFFF73A
:10179000F7FE2046FFF7F4FE10BDFFF7F1FEFBE772
:1017A0000F4B1B68D3B110B5FFF7F4FD0D4BDB6891
:1017B000DC68201DFFF784FD0B4A1368013B1360B2
:1017C000074A1368013B1360FFF706FE2046FFF748
:1017D000CBFF034B1B68002BE6D110BD704700BF49
:1017E000C40B0020380C0020C00B002008B5FFF708
:1017F000D7FF074B1B68012BF9D94FF0E0234FF0BF
:101800008052C3F8042DBFF34F8FBFF36F8FEEE705
:10181000340B002070B504460D461D4B1E681D4B51
:1018200018680430FFF74CFD50B91A4B1B68DA6A90
:10183000012303FA02F218490B6823EA02030B6042
:10184000B4F1FF3F0DD03444124B1B685C60A642DC
:1018500010D9124B18680F4B19680431FFF717FDA8
:1018600070BD002DEFD00B4B196804310C48FFF709
:1018700003FDF5E70B4B1868064B19680431FFF7B9
:1018800006FD094B1B68A342EAD9074B1C60E7E73A
:101890004C0C0020280B0020D40B0020300B002023
:1018A000240C00202C0B0020040C002030B587B045
:1018B0000B9C7CB10C9DB5B154250495049D542D11
:1018C0001AD04FF0500383F31188BFF36F8FBFF32B
:1018D0004F8FFEE74FF0500383F31188BFF36F8FF4
:1018E000BFF34F8FFEE74FF0500383F31188BFF330
:1018F0006F8FBFF34F8FFEE70C9D2C63022485F89A
:10190000514000240394029505AC01940A9C009474
:10191000FFF758FE0C98FFF7D3FE059807B030BDCF
:101920002DE9F04385B00746884614461E469000D0
:10193000FFF71AFE00B381465420FFF715FE054657
:10194000B0B1C0F83090E5B1002385F85130039371
:1019500002950D9B01930C9B009333462246414612
:101960003846FFF72FFE2846FFF7AAFE012005E0C4
:101970004846FFF705FEE6E74FF0FF3005B0BDE84B
:10198000F0834FF0FF30F9E710B588B000240594DC
:10199000069407AA06A905A8FEF76AFC059B029310
:1019A000069B019300942346079A0E490E48FFF7C1
:1019B0007DFF0E4B186090B14FF0500383F31188F8
:1019C000BFF36F8FBFF34F8F094B4FF0FF321A6099
:1019D000084B01221A60084B1C60FFF765FD08B038
:1019E00010BD00BFD03A0008ED170008000C002021
:1019F000040C0020200C00204C0C0020024A13682C
:101A000001331360704700BFCC0B0020F8B53A4B90
:101A10001B68002B64D1394B1D6801351D60C5B9A9
:101A2000374B1B681B6843B14FF0500383F3118899
:101A3000BFF36F8FBFF34F8FFEE7314A1168314B11
:101A4000186810601960304A136801331360FFF79B
:101A5000A3FD2E4B1B68AB4238D900272C4B1B68CB
:101A6000DB6A03EB83039A002A4B9B58012B3CD97A
:101A700001273AE00127224B1B681B6843B3204B28
:101A80001B68DB68DC6863689D4226D3261D3046F0
:101A9000FFF716FCA36A1BB104F11800FFF710FC56
:101AA000E36A01229A401C49086802430A6003EB7A
:101AB00083039A00314617481044FFF7DDFBE26AC2
:101AC000134B1B68DB6A9A42D4D2D4E70027D2E7D3
:101AD0000E4B4FF0FF321A60C0E70C4A1360BDE7AF
:101AE0000E4A13680133136000270D4B1B6803B1C6
:101AF00001273846F8BD00BFCC0B00204C0C00205D
:101B00002C0B0020300B0020080C0020040C0020BF
:101B1000280B0020340B0020D40B0020C80B002021
:101B2000500C002038B5354B1B6843B94FF05003BB
:101B300083F31188BFF36F8FBFF34F8FFEE7FFF77B
:101B400029FC2E4B1A68013A1A601B68002B4FD1F2
:101B50002B4B1B680BB900244BE00024294B1B685E
:101B60001BB3284BDB68DC6804F11800FFF7A8FB07
:101B7000251D2846FFF7A4FBE06A01238340224A83
:101B800011680B43136000EB800029461F4B03EBE9
:101B90008000FFF771FBE26A1D4B1B68DB6A9A420B
:101BA000DCD31C4B01221A60D8E70CB1FFF7F4FC20
:101BB000194B1C6884B9174B1C68D4B14FF0E02353
:101BC0004FF08052C3F8042DBFF34F8FBFF36F8FD8
:101BD00001240EE0013C07D0FFF718FF0028F9D0E0
:101BE0000C4B01221A60F5E70B4B00221A60E2E76A
:101BF0000024FFF7F1FB204638BD00BFCC0B0020CE
:101C0000C00B00200C0C0020D40B0020340B002053
:101C1000280B0020500C0020C80B002010B5A8B1E4
:101C20000446104B1B6843B14FF0500383F31188F7
:101C3000BFF36F8FBFF34F8FFEE7FFF7DFFE00218B
:101C40002046FFF7E7FDFFF76DFF48B94FF0E023AF
:101C50004FF08052C3F8042DBFF34F8FBFF36F8F47
:101C600010BD00BFCC0B0020204B1B681BB1204BCC
:101C700001221A6070471E4B00221A601D4B1B6820
:101C8000B3FA83F3DBB2C3F11F0303EB83018A00D2
:101C900019498A5842B94FF0500383F31188BFF3B2
:101CA0006F8FBFF34F8FFEE7134903EB8300820072
:101CB0000A4450684068506003EB830C4FEA8C0282
:101CC00008321144884209D003EB83039A000A4B7F
:101CD00013445B68DA68094B1A60704740686246D3
:101CE0009100054A0A445060EEE700BFCC0B00208B
:101CF000500C0020D40B0020340B0020280B0020B7
:101D0000054B1B6833B1054B1B680BB100207047B6
:101D10000220704701207047200C0020CC0B0020CF
:101D20000C480D490D4A002302E0D458C450043336
:101D3000C4188C42F9D30A4A0A4C002301E013600C
:101D40000432A242FBD3FEF7E3FB00F015F8FEF7E6
:101D50005AFB70470000002054080020EC3A0008AD
:101D6000540800209C0C0020FEE70000014B18687E
:101D7000704700BF1000002070B50D4E0D4D761B52
:101D8000B61006D0002455F8043B01349847A6420B
:101D9000F9D1094E094D01F035FE761BB61006D07B
:101DA000002455F8043B01349847A642F9D170BD90
:101DB000E03A0008E03A0008E83A0008E03A000893
:101DC000024B0146186800F00BB800BF100000205D
:101DD000024B0146186800F049BE00BF1000002009
:101DE0002DE9F04F01F10B05162D064683B025D8DD
:101DF000102900F2B88000F0F1FA102518224FF0F7
:101E0000020CB54F3A445368A2F108018B4200F02E
:101E1000B7805A68D96822F003021A449C68304699
:101E2000E1608C60516803F1080441F001015160E8
:101E300000F0DAFA204603B0BDE8F08F35F0070570
:101E400000F19180A94200F28E8000F0C7FAB5F54A
:101E5000FC7FC0F094816B0A00F08C80042B00F2B0
:101E60006A81AB0903F1390C03F138044FEACC0065
:101E7000994F384443680838984206D10CE000294D
:101E800080F22681DB68984206D05A6822F003026D
:101E9000511B0F29F3DDA4463C69DFF840E274458D
:101EA0007AD0626822F00302531B0F2B00F3768175
:101EB000002BC7E904EE80F26781B2F5007F80F065
:101EC00019810121D30852090B4491407A6857F8CF
:101ED00033000A4307EBC3010839A060E1607A6070
:101EE00047F83340C46001214FEAAC039940914266
:101EF00059D8114206D12CF0030C490011420CF1C3
:101F0000040CFAD007EBCC0948466446D0F80C80A4
:101F1000404508D11CE1002B80F22181D8F80C80CB
:101F2000404500F01581D8F8042022F00302531B2D
:101F30000F2BF0DD08EB050145F00105C8F8045052
:101F40003046D8E90264F460A66043F00104C7E9B2
:101F500004114C60C1E902EE48F8023000F044FA86
:101F600008F1080402E00C2300243360204603B08B
:101F7000BDE8F08F4FF400704FF0400C3F2477E73E
:101F8000D3689A4208BF0CF1020C7FF442AF3C695F
:101F9000DFF848E1744584D101217A684FEAAC0347
:101FA00099409142A5D9BC68636823F003094D4567
:101FB00003D8A9EB05030F2B7ADCDFF824B1494BDA
:101FC000DBF800201B6801322B4404EB090A00F007
:101FD0002F8103F580530F3323F47F6828F00F0817
:101FE0004146304600F05CFA411C024600F0EF80AA
:101FF000824500F2EA803C4B19684144084619606A
:1020000000F04981DBF80010019301311BBFA2EB06
:102010000A0A5044CBF80020186012F0070B00F0B9
:102020001181CBF108010A44CBF58051904408316D
:10203000A1EB0801C1F30B0A51463046009200F0B3
:102040002FFA421CDDE9002300F04B81801A00EBDF
:102050000A08196848F001005144BC42BA6019608E
:10206000506000F02481B9F10F0F40F222814FF04F
:10207000050E6068A9F10C0C2CF0070C00F00100B3
:1020800040EA0C006060BCF10F0F04EB0C00C0E9EB
:1020900001EE00F22E8114465068144B1A688A42F1
:1020A00038BF1960124B1A688A4238BF196090E035
:1020B000621943F0010345F0010565603046BA60DE
:1020C0000834536000F090F9204603B0BDE8F08F6B
:1020D000D9681A44A2E600BF40040020480400204A
:1020E00048080020840C0020540C00207C0C0020A8
:1020F000800C0020B2F5206F4FEA52235FD3142BDF
:1021000000F2B18003F15C01C9005B3378187958A3
:102110000838884200F08F804B6823F00303934215
:1021200002D989688842F7D1C8687A68C4E9021080
:102130008460CC60D7E6142B59D9542B00F29B80D5
:102140002B0B03F16F0C03F16E044FEACC008FE60A
:102150000134A30700F108007FF4D8AE53E04446F1
:1021600042445368D8F80C1043F00103536054F80C
:10217000083F3046D9608B6000F036F9F6E64FEA4A
:10218000D50C05F108023CE622445368304643F082
:102190000103536000F028F90834E7E6611945F0BF
:1021A0000105656043F00105C7E904113046C1E946
:1021B00002EE4D60A35000F017F90834D6E69309FB
:1021C00003F13901C9003833A0E7BC425ED0BC68D6
:1021D000606820F003084545A8EB050302D80F2BE3
:1021E0003FF766AF304600F0FFF80024BEE603F18B
:1021F0005C0C03F15B044FEACC0039E659F808396E
:102200004B4540F095801CF0030F0CF1FF3CF5D1DD
:102210007B6823EA01037B60490099423FF6C3AE25
:1022200011B9C0E6490004341942FBD0A44669E65E
:1022300003F11008D4E601229B109A407B681A43F0
:102240007A6073E702EB08014942C1F30B0A514679
:102250003046009200F024F9431CDDE900237FF4AE
:10226000F5AEDA46F5E6542B26D8130B03F16F01D1
:10227000C9006E334AE7B3F5AA7F26D8EB0B03F10A
:10228000780C03F177044FEACC00F1E5294B18688C
:1022900040441860B6E6CAF30B0CBCF1000F7FF4A3
:1022A000B1AEBC68C84448F001006060F5E6144671
:1022B000F3E60123536095E7B3F5AA7F24D8D30B47
:1022C00003F17801C900773320E740F2545293427A
:1022D00024D8AB0C03F17D0C03F17C044FEACC0055
:1022E000C6E5ABF1080BD8444FF0000AA8EB020892
:1022F000AFE604F108013046009300F0B7FBBC687C
:10230000009B60681968C8E640F254518B420BD8B4
:10231000930C03F17D01C9007C33F7E64FF47E7026
:102320004FF07F0C7E24A3E54FF47E717E23EDE613
:102330007B6871E7540C0020830730B548D0541EE9
:10234000002A3FD00346CAB201E0013C3AD303F869
:10235000012B9D07F9D1032C2DD9CDB245EA0525D6
:102360000F2C45EA054536D9A4F1100222F00F0CD6
:1023700003F1200EE6444FEA121C03F1100242E979
:10238000045542E9025510327245F8D10CF10102B0
:1023900014F00C0F03EB021204F00F0C13D0ACF18D
:1023A000040323F003030433134442F8045B934211
:1023B000FBD10CF003042CB1CAB21C4403F8012B6E
:1023C0009C42FBD130BD64461346002CF4D1F9E7A2
:1023D00003461446BFE71A46A446E0E7014800F06A
:1023E000E5BD00BF8C0C0020014800F0E1BD00BF3E
:1023F0008C0C002030B5054689B008460C4600F02C
:1024000039F901210223214A04940692AA6B04ACF3
:102410000590084401940791AC680293039022B39D
:10242000636E13F0010FB4F90C309AB201D1980524
:1024300025D5910406D4626E43F4005322F4005271
:10244000A3816266284601AA214600F00FFC636E54
:10245000002814BF4FF0FF350A25DA0702D4A389FC
:102460009B0506D5284609B030BD284600F006FA7F
:10247000D6E7A06D00F09CFD284609B030BDA06DE8
:1024800000F094FDB4F90C309AB2D2E7DC3A0008BF
:10249000024B01461868FFF7ADBF00BF10000020D7
:1024A000002238B5064D044608462A60FEF706F8B5
:1024B000431C00D038BD2B68002BFBD0236038BDF7
:1024C000980C00202DE9F043694C0E46D4F80080AA
:1024D000174604461D4683B0B8F1000F03D0D8F864
:1024E0003830002B77D0022F05D0012F00F2AC80BE
:1024F000002DC0F2A980636EDA0752D5214640460E
:1025000000F088F9216B41B104F14003994202D0F7
:10251000404600F0ABFA002323630023B4F90CC05B
:10252000A3611CF0800F636064D12CF44A6C2CF022
:10253000030C022FA4F80CC06AD001AB2146404620
:102540006A4600F0A7FDA3891843A081002D2FD073
:10255000002E2ED0D8F83830002B38D0009BC4E99C
:102560000465AB42B4F90C3026601CBF43F4006331
:10257000A381012F04BF43F00103A3819AB213F09A
:1025800008032CD0D1075DD500216D42A561656E91
:10259000A16015F0010527D00025284603B0BDE84D
:1025A000F083A3899B05A9D4A06D00F0FFFCA5E7EB
:1025B000009D2846FFF704FC0646002847D0A38963
:1025C00043F08003A381D8F83830002BC6D14046B1
:1025D00000F054F9C2E7404600F050F983E7A360E9
:1025E000656E15F00105D7D1930524D5284603B0B3
:1025F000BDE8F0834046216900F038FAB4F90CC018
:10260000022F2CF44A6C2CF0030CA4F80CC094D1CB
:1026100000250021012204F1430323602361636E3E
:102620004CF0020CD807A4F80CC0A1606261DDD4A4
:102630001CF4007FDAD1A06D00F0BAFC284603B08C
:10264000BDE8F083A560CBE74FF0FF35CEE7DDF8BE
:102650000090A94504D04846FFF7B2FB064620B9D2
:102660004FF0FF35B4F90CC0D3E74D46A7E700BFE4
:102670001000002020F0030110F00300C0F1000062
:1026800051F8043B00F1040C4FEACC0C6FF000024F
:102690001CBF22FA0CF213434FF0010C4CEA0C2C35
:1026A0004CEA0C4CA3EB0C0222EA030212EACC1215
:1026B00004BF51F8043B0430F4D0C2F1000102EA37
:1026C0000102B2FA82F2C2F11F0200EBD20070479F
:1026D000024B13B1024800F005B87047000000003B
:1026E000A1290008002301461A46184601F07AB8CD
:1026F000B1F90C20F8B50C461107074643D46368BE
:1027000042F40062002BA2815BDDA56A002D56D049
:1027100000233E683B6093B212F4805255D10123EE
:102720003846E169A847421C65D0A389A56A5B07C2
:1027300005D56368C01A236B0BB1E36BC01A024660
:10274000E16900233846A847411C40D13B68002B73
:102750003DD01D2B01D0162B54D10022A38923F488
:102760000063A3812369C4E90032216B3E6031B369
:1027700004F14003994202D0384600F077F9002373
:1027800018462363F8BD2669CEB193B29A0718BFE5
:102790000023256808BF63692660AD1BA3600CE0B9
:1027A0002B463246D4F824C03846E169E047B0F100
:1027B000000CA5EB0C05664416DD002DF0DC0020B6
:1027C000F8BDE36B002BA0DCF9E7206DAFE700223A
:1027D000B4F90C30626023F400632269A381DB0446
:1027E0002260C2D52065C0E7A3894FF0FF3043F0D7
:1027F0004003A381F8BD3B68002B96D01D2B06D06B
:10280000162B04D0A38943F04003A381F8BD002018
:102810003E60F8BD38B505460C4608B1836BA3B1E0
:10282000B4F90C00B8B1636EDB0701D4810515D58E
:1028300028462146FFF75CFF636E0546DA0702D49F
:10284000A3899B050ED5284638BD00F017F8B4F9CA
:102850000C000028E7D10546284638BDA06D00F0E1
:10286000A5FBE5E7A06D00F0A3FB284638BD00BF3F
:10287000014900F073BB00BF953800082DE9F0470F
:102880008246394800F092FBDAF83840002C66D1D5
:10289000042303223549DAF80450CAF83C10DFF863
:1028A000D090DFF8D080344F344E0AF53B71CAE93E
:1028B000B921CAF8E0422146EB600822C5E900448C
:1028C000C5E904446C66AC60AC6105F15C00FFF7DF
:1028D00033FDC5E90759C5E90987EE6205F15800DE
:1028E00000F060FBDAF80850254B2146EB60082227
:1028F000C5E90044C5E904446C66AC60AC6105F10F
:102900005C00FFF719FDC5E90759C5E90987EE62C3
:1029100005F1580000F046FBDAF80C50194B21463F
:10292000EB600822C5E90044C5E904446C66AC606C
:10293000AC6105F15C00FFF7FFFC05F15800C5E94B
:102940000759C5E90A76C5F8248000F02BFB01235E
:102950000548CAF83830BDE8F04700F029BB024806
:10296000BDE8F04700F024BB940C0020712800085B
:10297000593600087D360008BD360008DD360008EF
:102980000900010012000200014800F00FBB00BF67
:10299000900C0020014800F00BBB00BF900C002001
:1029A00038B5084B084D5B1B9C1007D0043B1D44F9
:1029B000013C55F804399847002CF9D1BDE838405E
:1029C00001F026B8EC3A0008E83A0008F8B50C46E1
:1029D000234F0646FFF702FDBB685D68C4F57E63C2
:1029E00025F003050F332B4423F47F6323F00F03FB
:1029F000A3F58054B4F5805F07DB00213046FFF774
:102A00004FFDBB682B44984204D03046FFF7ECFCE6
:102A10000020F8BD30466142FFF742FD01300DD085
:102A2000104ABB682D1B45F001055D6013683046F8
:102A30001B1B1360FFF7D8FC0120F8BD00213046B6
:102A4000FFF72EFDBA68831A0F2BDEDD43F001037A
:102A50005360054B03491B68C01A0860D5E700BFE7
:102A600040040020540C00204808002000295ED0BB
:102A7000F8B50C460646FFF7B1FC54F8042C784F25
:102A8000A4F1080522F001016818D7F808C04368CE
:102A9000844523F0030300F08780D207436034D4D9
:102AA00054F8082C07F10804AD1A1144AA68A24290
:102AB00068D000EB030CDCF804E0D5F80CC01EF085
:102AC000010FC2F80CC0CCF8082000F0918041F052
:102AD00001036B600160B1F5007F31D24A09CB0878
:102AE000012191407A6801331143796007EBC302F9
:102AF00057F83310083AC5E9021247F83350CD6051
:102B00003046BDE8F840FFF76FBCC2185268D207E4
:102B10000ED4194407F108048368A34270D0C26838
:102B2000DA60936041F001036B606950D3E770474E
:102B300041F00103B1F5007F44F8043C0160CDD3BE
:102B4000B1F5206F4FEA512347D28B0903F13900C9
:102B500003F13802C300F818FB580838984258D0DF
:102B60005A6822F003028A4202D99B689842F7D140
:102B7000D868C5E9023085603046DD60BDE8F840C0
:102B8000FFF732BCC2185268D20763D40B44D0E9B5
:102B90000212CA60916043F001026A603046EB5055
:102BA000BDE8F840FFF720BC0B44D10707D454F828
:102BB000082CAD1A1344D5E90212CA60916043F0A3
:102BC00001026A60274ABD6012689A4298D8264B73
:102BD00030461968FFF7FAFE92E7142B0AD9542BF6
:102BE0001FD80B0B03F16F0003F16E02C300B2E7B5
:102BF000194491E703F15C0003F15B02C300AAE70B
:102C000041F00103C7E90455C5E902446B6069500E
:102C100076E70121921001FA02F279680A437A609C
:102C2000A7E7B3F5AA7F06D8CB0B03F1780003F131
:102C30007702C3008FE740F25452934206D88B0CC0
:102C400003F17D0003F17C02C30084E74FF47E733F
:102C50007E2280E741F001036B60016050E700BF16
:102C6000400400204C080020840C00209368002BB6
:102C700000F0B7802DE9F04FB1F90C300C46190780
:102C80008046174683B098B225D523691BB310F050
:102C900002033D682DD04FF0000B5E46DFF8B8A26E
:102CA000002E00F08B80564533465A4628BF5346C7
:102CB0004046E169D4F824C0E047002840F387800B
:102CC000BB6883441B1A361ABB60002BE8D1002076
:102CD00003B0BDE8F08F2146404600F019FD002802
:102CE00040F03681B4F90C303D6898B210F0020320
:102CF000D1D110F0010976D14E46002E5AD082056E
:102D0000D4F808B040F1B580B3455A4600F2CD8002
:102D100010F4906F00F0CB8023682169A3EB010BC6
:102D2000636903EB430A0AEBDA7A0BF101034FEA1A
:102D30006A0A33445345524684BF9A465246430575
:102D400040F1EA8011464046FFF74AF8002800F0BB
:102D5000F9805A4621690190FDF7FAF9A289019B91
:102D600022F4906242F08002A28103EB0B00236107
:102D70003246AAEB0B03B346C4F814A0A36020604C
:102D8000B24600264946019200F0FCF9A36821688A
:102D9000019AA3EB0B030A44A3602260B868D144F4
:102DA000A0EB0A00B860002891D0B4F90C0080B202
:102DB000002EA4D1D5E9009608359EE7D5E900B6E6
:102DC00008356DE721464046FFF724FD80B3B4F98E
:102DD0000C304FF0FF3043F04003A38103B0BDE857
:102DE000F08F002070471E46AA46994618461D4699
:102DF00056B3002832D04A4620682169B24228BF23
:102E000032468842636904D9A16803EB010B5A4535
:102E100074DC934265DC2A464046E169D4F824C05C
:102E2000E047B0F1000BD2DDB9EB0B09CAD00120AD
:102E3000BB685D44A3EB0B03A6EB0B06BB60002B4A
:102E40003FF445AF002ED4D10AF1080353F8046CC7
:102E50009A4653F8085C0833002EF7D032460A2110
:102E6000284600F047F9002869D00130A0EB050999
:102E7000C1E72068236998421BD86369B34218D818
:102E80006FF0004CB44528BFB4469CFBF3FC4A46A7
:102E900003FB0CF34046E169D4F824C0E047B0F1ED
:102EA000000A94DDA6EB0A0678E7B34632462068AE
:102EB00066E7B345DA4628BFB2464946524600F0B7
:102EC00061F9A3682268A3EB0A035244A36022605D
:102ED000002BE7D121464046FFF79CFC0028E1D0BB
:102EE00075E729469346019200F04CF9A368019AD0
:102EF0009B1AA36023681A44226095E729465A4624
:102F000000F040F9236821465B4440462360FFF708
:102F100081FC002888D05AE7404600F0AFF903460C
:102F200000287FF422AF40462169FFF79FFD0C2265
:102F3000B4F90C30C8F8002023F0800349E7721C74
:102F4000914659E70C22B4F90C30C8F8002040E74C
:102F50004FF0FF30BCE600BF00FCFF7F2DE9F843D7
:102F60004FF000090746884600F53876D6E9015447
:102F7000013D10D4A389013D012B08D9B4F90E30CD
:102F8000013304D021463846C04749EA00096B1C8A
:102F900004F16804EED13668002EE7D14846BDE85A
:102FA000F88300BF704700BF704700BF704700BF85
:102FB000704700BF2DE9F0418B890C46990796B008
:102FC00008D5012204F14303C4E90432236016B09A
:102FD000BDE8F081B4F90E100646002927DB6A46E9
:102FE00000F0BEFC002821DB019D4FF4806805F451
:102FF0007045A5F50055B5FA85F54FF400676D09E4
:1030000041463046FEF7ECFEB4F90C30F0B1204AF0
:1030100043F08003F263C4F81480A3812060206130
:1030200035BB3B43A38116B0BDE8F081A38913F003
:10303000800519D04FF04008304641460025FEF784
:10304000CFFE2F46B4F90C300028E0D19A05BED44B
:10305000012123F0030304F1430243F00203C4E916
:103060000421A3812260B2E74FF480682F46C7E7AE
:103070003046B4F90E1000F087FC10B9B4F90C30EA
:10308000CFE7A38923F0030343F001031BB2C8E792
:103090007128000870B50C46B1F90E1015460029CC
:1030A0001E4696B014DB6A4600F05AFC00280FDB7F
:1030B000019A4FF4806302F47042A2F50052B2FA12
:1030C00082F24FF40060520932602B6016B070BD7E
:1030D0000023B4F90C10336011F0800004D04022BA
:1030E00018462A6016B070BD4FF480632B6016B08E
:1030F00070BD00BF5FFA81FC810710D00346511EEE
:103100002AB90AE09A0718460AD0013905D31846A9
:1031100013F8012B6245F5D1704700207047114626
:1031200003290CD80029F8D00346014401E08B4262
:10313000F3D0184613F8012B6245F8D1ECE70246AC
:1031400010B54CEA0C2444EA0444104603680432E7
:103150006340A3F1013E2EEA030313F0803F04D144
:10316000043903291046F0D851B10346014401E067
:103170008B4205D0184613F8012B6245F8D110BDDB
:10318000002010BD88420DD98B1883420AD900EB6C
:10319000020CBAB1624613F801CD994202F801CD92
:1031A000F9D170470F2A0ED8034602F1FF3C4AB10D
:1031B0000CF1010C013B8C4411F8012B614503F823
:1031C000012FF9D1704740EA01039B074FD1A2F1CB
:1031D000100370B501F1200C23F00F0501F1100E62
:1031E00000F11004AC441B095EF8105C0EF1100EE7
:1031F00044F8105C5EF81C5C103444F81C5C5EF80B
:10320000185C44F8185C5EF8145CE64544F8145CFD
:10321000EAD1013312F00C0F01EB031102F00F049D
:1032200000EB031327D08E46043C24F003064FEA3C
:10323000940C1E441C1F5EF8045B44F8045FB44207
:10324000F9D10CF1010402F0030203EB840301EB5A
:10325000840102F1FF3C4AB10CF1010C013B8C44AA
:1032600011F8012B614503F8012FF9D170BD034618
:1032700002F1FF3C9CE72246EBE700BF2DE9F84F47
:103280001646002900F0988006F10B0580460C4692
:10329000FFF7A4F8162D5DD810252A46AE425ED859
:1032A00054F8041CA4F1080921F00307974262DADC
:1032B000BC4B09EB0700D3F808C0844500F09780A9
:1032C000D0F804C02CF0010303445B68DB0768D42A
:1032D0002CF0030C07EB0C03934247DACB0710D416
:1032E00054F8083CA9EB030ADAF8043023F0030190
:1032F0008C44BC44944580F211817B18934280F247
:10330000E88031464046FEF76BFD0646E0B154F8D2
:10331000043CA0F1080223F001034B44934200F067
:10332000D2803A1F242A00F2F580132A00F2AC80E2
:1033300003462246116819605168596092689A6084
:1033400021464046FFF792FB4046FFF74DF83046D6
:10335000BDE8F88F25F00705002D2A469EDA0C23DC
:103360000026C8F800303046BDE8F88F1F46D0E987
:103370000223D3609A607B1B0F2B22D8D9F804302C
:1033800003F001033B43C9F804304F447B6843F02A
:1033900001037B6026464046FFF726F83046BDE82D
:1033A000F88FC907ADD454F8083CA9EB030ADAF842
:1033B000041021F00301A0E71146BDE8F84FFEF725
:1033C0000FBDD9F8041043F0010301F001012943B6
:1033D000C9F8041009EB05014B604F447B68404677
:1033E00043F0010308317B60FFF740FBD2E7DCF8D4
:1033F000040020F0030B07EB0B0C05F110008445D3
:103400004DDAC9073FF57DAF54F8081CA9EB010A56
:10341000DAF8041021F003018B44BB4458453FF710
:103420006CAF5646DAF80C1056F8080F3A1F242AEB
:10343000C160886000F2DB80132A40F2D6802168E8
:103440001B2ACAF808106168CAF80C1000F2E08064
:1034500008340AF110022168116061685160A168A6
:103460009160ABEB05020AEB050142F001029960A5
:103470004A60DAF80430404603F001031D43CAF8FD
:103480000450FEF7B1FF6EE723681B2A03606368F0
:10349000436068D804F1080200F108034AE709EB29
:1034A0000502ACEB050C9A604CF00103536054F834
:1034B000043C404603F001031D4344F8045CFEF75E
:1034C00093FF26464FE750F8043C23F003031F44C4
:1034D00051E75646DAF80C1056F8080F3A1F242A1E
:1034E000C16088604CD8132A48D921681B2ACAF8C1
:1034F00008106168CAF80C1056D808340AF1100296
:103500001F462368D146136063685360A36834463E
:10351000936030E72146FFF735FE11E75646D0E9C4
:103520000213CB60996056F8081FDAF80C303A1F86
:10353000242ACB6099602DD8132A29D923681B2A05
:10354000CAF808306368CAF80C3042D808340AF167
:103550001003226867461A606268D1465A60A26802
:1035600034469A6007E7A368242A8360E368C3604F
:1035700026D004F1100200F11003DBE63246BFE76B
:10358000214630461F46D146FFF7FCFD3446F2E6A1
:103590003346DEE7214630466746D146FFF7F2FD67
:1035A0003446E8E640040020A168242ACAF8101036
:1035B000E168CAF8141020D010340AF118029FE70D
:1035C000236904F1180203616369436100F1180380
:1035D000B0E6A368242ACAF81030E368CAF81430A9
:1035E00022D010340AF11803B3E7324633E72146FC
:1035F0003046FFF7C7FD174B33E722691834CAF886
:10360000182054F8042CCAF81C200AF1200277E78D
:10361000A168242ACAF81010E168CAF814100ED064
:1036200010340AF1180216E723691834CAF8183062
:1036300054F8043CCAF81C300AF1200389E72269D7
:103640001834CAF8182054F8042CCAF81C200AF1BF
:10365000200200E74004002010B50C46B1F90E101E
:1036600000F0BAF9002803DB236D0344236510BD85
:10367000A38923F48053A38110BD00BF2DE9F0413D
:103680000C46B1F90C101F46CB05054616460BD467
:1036900021F48051A1813B4632462846B4F90E10F0
:1036A000BDE8F04100F01EB8B4F90E10022300226C
:1036B00000F07CF9B4F90C10EAE700BF10B50C4635
:1036C000B1F90E1000F072F9A389421C0EBF23F469
:1036D000805343F480532065A38110BDB1F90E10CF
:1036E00000F0C6B838B50C46114600228446074D96
:1036F00020462A601A466446FCF71EFE431C00D092
:1037000038BD2B68002BFBD0236038BD980C0020FF
:1037100038B5334B05461B680C460BB19A6B12B398
:10372000B4F90C3018079AB225D5216900292DD09B
:1037300012F0010007D000256069A5604042A06139
:1037400039B1002038BD950758BF6069A0600029D5
:10375000F7D1120658BF0846F4D543F040034FF0A6
:10376000FF30A38138BD1846FFF788F8B4F90C3054
:1037700018079AB2D9D4D1062AD5520714D4216990
:1037800043F00803A3819AB20029D1D102F420703A
:10379000B0F5007FCCD021462846FFF70BFCB4F9EA
:1037A0000C3021699AB2C3E7216B51B104F1400298
:1037B000914204D02846FFF759F9B4F90C300022A1
:1037C00022630022216923F02403C4E90012D7E711
:1037D000092243F040032A604FF0FF30A38138BD37
:1037E000100000202DE9F047DFF87CA00646DAF84B
:1037F000000098460F469146FFF7D8FB1B4B1B680D
:10380000D3F8484124B365681F2D26DC5EB96B1CD4
:103810000235DAF80000636044F82570FFF7C8FB52
:103820000020BDE8F087012304EB8501C1F88890F2
:10383000D4F88821AB401A43022EC4F88821C1F87D
:103840000881E4D1D4F88C211343C4F88C31DEE72D
:1038500003F5A674C3F84841D5E7DAF80000FFF78E
:10386000A7FB4FF0FF30DCE750080020D83A0008F3
:10387000002238B5064D044608462A60FCF73CFE97
:10388000431C00D038BD2B68002BFBD0236038BD13
:10389000980C002070B500294BD006460C4610B19C
:1038A000836B002B48D0636ED80734D5B4F90C3045
:1038B000002B3ED021463046FEF71AFFE36A05464C
:1038C00033B13046E16998470028B8BF4FF0FF3563
:1038D000A3891A063BD4216B41B104F140039942FC
:1038E00002D03046FFF7C2F800232363616C21B198
:1038F0003046FFF7BBF800236364FFF745F800226A
:10390000636EA281DB0727D5A06DFFF74DFBFFF7A4
:1039100041F8284670BDA3899905CBD4A06DFFF767
:1039200045FBB4F90C30002BC4D1656E15F00105D0
:1039300008D00025284670BDFEF7A0FF636ED807AB
:10394000B4D4E8E7A06DFFF733FB284670BD3046DE
:103950002169FFF78BF8BEE7A06DFFF729FBD3E7DE
:1039600070B50026074D0446084611462E60FCF748
:10397000C6FD431C00D070BD2B68002BFBD023601C
:1039800070BD00BF980C0020002238B5064D0446DB
:1039900008462A60FCF7B8FD431C00D038BD2B68F0
:1039A000002BFBD0236038BD980C002038B50C46A6
:1039B000114600228446074D20462A601A46644676
:1039C000FCF7A4FD431C00D038BD2B68002BFBD0B6
:1039D000236038BD980C002038B50C4611460022F3
:1039E0008446074D20462A601A466446FCF755FD7A
:1039F000431C00D038BD2B68002BFBD0236038BDA2
:103A0000980C0020F8B500BFF8BC08BC9E46704773
:0C3A1000F8B500BFF8BC08BC9E4670472B
:103A1C00803A000865020008000000000000000069
:103A2C008000000000000000000000008C3A00083C
:103A3C003D020008FDFF00000000000080000000B7
:103A4C000000000000000000983A00085102000835
:103A5C00FDFF0000000000008000000000000000DE
:103A6C000000000054312072756E0D00543220722B
:103A7C00756E0D0064656661756C745461736B00D2
:103A8C006D795461736B3032000000006D795461B4
:103A9C00736B3033000000000000000000000000D9
:103AAC0001020304060708090000000001020304D8
:103ABC0002030405060708090A0B0C0D0E0F101063
:103ACC000000000049444C45000000001800002094
:043ADC000A000000DC
:083AE000D126000835010008A1
:043AE80011010008C0
:103AEC000024F4000100000010000000AAAAAAAAF9
:103AFC00180000200000000000000000040300205B
:103B0C006C030020D4030020000000000000000023
:103B1C000000000000000000000000000000000099
:103B2C000000000000000000000000000000000089
:103B3C000000000000000000000000000000000079
:103B4C000000000000000000000000000000000069
:103B5C000000000000000000000000000000000059
:103B6C000000000000000000000000000000000049
:103B7C000000000000000000000000000000000039
:103B8C000000000000000000000000000000000029
:103B9C000000000000000000000000000000000019
:103BAC0001000000000000000E33CDAB34126DE6B6
:103BBC00ECDE05000B00000000000000000000001F
:103BCC0000000000000000000000000000000000E9
:103BDC0000000000000000000000000000000000D9
:103BEC0000000000000000000000000000000000C9
:103BFC0000000000000000000000000000000000B9
:103F2C0000000000000000004004002040040020BD
:103F3C0048040020480400205004002050040020B5
:103F4C005804002058040020600400206004002065
:103F5C006804002068040020700400207004002015
:103F6C0078040020780400208004002080040020C5
:103F7C008804002088040020900400209004002075
:103F8C009804002098040020A0040020A004002025
:103F9C00A8040020A8040020B0040020B0040020D5
:103FAC00B8040020B8040020C0040020C004002085
:103FBC00C8040020C8040020D0040020D004002035
:103FCC00D8040020D8040020E0040020E0040020E5
:103FDC00E8040020E8040020F0040020F004002095
:103FEC00F8040020F8040020000500200005002043
:103FFC0008050020080500201005002010050020F1
:10400C0018050020180500202005002020050020A0
:10401C002805002028050020300500203005002050
:10402C003805002038050020400500204005002000
:10403C0048050020480500205005002050050020B0
:10404C005805002058050020600500206005002060
:10405C006805002068050020700500207005002010
:10406C0078050020780500208005002080050020C0
:10407C008805002088050020900500209005002070
:10408C009805002098050020A0050020A005002020
:10409C00A8050020A8050020B0050020B0050020D0
:1040AC00B8050020B8050020C0050020C005002080
:1040BC00C8050020C8050020D0050020D005002030
:1040CC00D8050020D8050020E0050020E0050020E0
:1040DC00E8050020E8050020F0050020F005002090
:1040EC00F8050020F805002000060020000600203E
:1040FC0008060020080600201006002010060020EC
:10410C00180600201806002020060020200600209B
:10411C00280600202806002030060020300600204B
:10412C0038060020380600204006002040060020FB
:10413C0048060020480600205006002050060020AB
:10414C00580600205806002060060020600600205B
:10415C00680600206806002070060020700600200B
:10416C0078060020780600208006002080060020BB
:10417C00880600208806002090060020900600206B
:10418C009806002098060020A0060020A00600201B
:10419C00A8060020A8060020B0060020B0060020CB
:1041AC00B8060020B8060020C0060020C00600207B
:1041BC00C8060020C8060020D0060020D00600202B
:1041CC00D8060020D8060020E0060020E0060020DB
:1041DC00E8060020E8060020F0060020F00600208B
:1041EC00F8060020F8060020000700200007002039
:1041FC0008070020080700201007002010070020E7
:10420C001807002018070020200700202007002096
:10421C002807002028070020300700203007002046
:10422C0038070020380700204007002040070020F6
:10423C0048070020480700205007002050070020A6
:10424C005807002058070020600700206007002056
:10425C006807002068070020700700207007002006
:10426C0078070020780700208007002080070020B6
:10427C008807002088070020900700209007002066
:10428C009807002098070020A0070020A007002016
:10429C00A8070020A8070020B0070020B0070020C6
:1042AC00B8070020B8070020C0070020C007002076
:1042BC00C8070020C8070020D0070020D007002026
:1042CC00D8070020D8070020E0070020E0070020D6
:1042DC00E8070020E8070020F0070020F007002086
:1042EC00F8070020F8070020000800200008002034
:1042FC0008080020080800201008002010080020E2
:10430C001808002018080020200800202008002091
:10431C002808002028080020300800203008002041
:10432C003808002038080020FFFFFFFF00000200C3
:04433C00880C0020C9
:0400000508001D21B1
:00000001FF
